:020000040800F2
:1000000000280020491A00081D18000823180008BD
:10001000291800082F1800083518000800000000F3
:100020000000000000000000000000003B18000875
:100030004718000800000000531800085F18000867
:10004000911A0008911A0008911A0008911A0008E4
:10005000911A0008911A0008911A0008911A0008D4
:10006000911A0008911A0008911A0008911A0008C4
:10007000911A0008911A0008911A0008911A0008B4
:10008000911A0008911A0008911A0008911A0008A4
:10009000911A0008911A0008911A0008911A000894
:1000A000911A0008911A0008911A0008911A000884
:1000B0006D180008911A000800000000911A00084D
:1000C000911A00080000000000000000911A0008CA
:1000D00000000000911A0008911A000800000000BA
:1000E000911A0008911A0008911A000800000000F7
:1000F0000000000000000000000000000000000000
:0C01000000000000000000005FF808F1A3
:10010C0010B5054C237833B9044B13B10448AFF345
:10011C0000800123237010BD30000020000000007F
:10012C00C030000808B5034B1BB103490348AFF3BB
:10013C00008008BD0000000034000020C030000822
:10014C0080B582B000AF00237B6011E07B68002B90
:10015C0001D100F015F87B68012B01D100F080F87B
:10016C007B68022B01D100F0EBF87B6801337B60DC
:10017C007B68022BEADD00BF00BF0837BD4680BD9F
:10018C0080B500AF324B1B68042B5AD801A252F831
:10019C0023F000BFB5010008CD010008ED010008F7
:1001AC004F020008190200084FF40051294801F0D1
:1001BC0055FF0346012B46D0254B01221A6045E022
:1001CC004FF40051234801F049FF0346012B03D1A2
:1001DC001F4B00221A6039E01D4B02221A6035E0D9
:1001EC004FF400511B4801F039FF0346012B03D19A
:1001FC00174B00221A6029E0174B01221A60144B8E
:10020C0004221A60154BC8221A601FE0134B1B689E
:10021C00013B124A1360114B1B68002B05D10F4B8D
:10022C00C8221A600C4B01221A604FF40051094885
:10023C0001F014FF0346012B07D1054B00221A6075
:10024C0003E000BF02E000BF00E000BF80BD00BFC4
:10025C0058000020001001404C000020000000203D
:10026C0080B500AF324B5B68042B5AD801A252F810
:10027C0023F000BF95020008AD020008CD02000873
:10028C002F030008F90200084FF48041294801F0BF
:10029C00E5FE0346012B46D0254B01225A6045E072
:1002AC004FF48041234801F0D9FE0346012B03D1C2
:1002BC001F4B00225A6039E01D4B02225A6035E078
:1002CC004FF480411B4801F0C9FE0346012B03D1BA
:1002DC00174B00225A6029E0174B01225A60144B2D
:1002EC0004225A60154BC8225A601FE0134B5B68FE
:1002FC00013B124A5360114B5B68002B05D10F4B2D
:10030C00C8225A600C4B01225A604FF480410948B4
:10031C0001F0A4FE0346012B07D1054B00225A60C5
:10032C0003E000BF02E000BF00E000BF80BD00BFE3
:10033C0058000020001001404C000020000000205C
:10034C0080B500AF324B9B68042B5AD801A252F8EF
:10035C0023F000BF750300088D030008AD030008EF
:10036C000F040008D90300084FF40041294801F09C
:10037C0075FE0346012B46D0254B01229A6045E0C1
:10038C004FF40041234801F069FE0346012B03D1D1
:10039C001F4B00229A6039E01D4B02229A6035E017
:1003AC004FF400411B4801F059FE0346012B03D1C9
:1003BC00174B00229A6029E0174B01229A60144BCC
:1003CC0004229A60154BC8229A601FE0134B9B685D
:1003DC00013B124A9360114B9B68002B05D10F4BCC
:1003EC00C8229A600C4B01229A604FF400410948D4
:1003FC0001F034FE0346012B07D1054B00229A6015
:10040C0003E000BF02E000BF00E000BF80BD00BF02
:10041C0058000020001001404C000020000000207B
:10042C0080B500AF7E4B1B68042B00F2D98101A272
:10043C0052F823F0550400087F0400085905000801
:10044C005106000829070008754B01221A6040F676
:10045C00B831012001F03CF94FF47A71022001F01F
:10046C0037F9FA21032001F033F96E4B01221A609F
:10047C00BFE16C4B1B68012B10D101F001FA01F0AC
:10048C0059FA694B1B68013B684A5360684B1B68FF
:10049C00013B664AD360634B00221A60654B5B6874
:1004AC00012B0DD1614B0122DA605D4B02221A60E7
:1004BC005C4B01221A604FF4FA61012001F008F93B
:1004CC005D4B1B68042B02D15B4B00221A60594B0D
:1004DC00DB68012B0BD1584B1B685A1C56490A6020
:1004EC00184600F0C1FFFA21032001F0F1F8514B3E
:1004FC009B68012B0ED14D4BDB68013B4B4AD36003
:10050C004A4B5B68013B494A53604FF47A710220B5
:10051C0001F0DEF8494B1B68012B40F06381474B1F
:10052C0000221A603F4B01221A6000F07FFF01F09D
:10053C0031FAFA21032001F0CBF84FF4FA710420C0
:10054C0001F0C6F8364B05221A604BE1354B1B689F
:10055C00012B09D101F006FA394B1B68013B334AD8
:10056C00D360304B00221A60324B5B68012B10D1E8
:10057C002E4B02225A602D4B0422DA60284B0322A8
:10058C001A60284B01221A6040F6B831012001F0A4
:10059C009FF8294B1B68042B02D1274B00221A60B1
:1005AC00244BDB68012B0BD1234B1B685A1C2249B3
:1005BC000A60184600F058FFFA21032001F088F871
:1005CC001C4B9B68012B0ED1184BDB68013B174A67
:1005DC00D360164B5B68013B144A53604FF47A713D
:1005EC00022001F075F8154B1B68012B40F0FC80C4
:1005FC00124B00221A600B4B01221A6000F016FFFE
:10060C0001F0C8F9FA21032001F062F84FF4FA71F5
:10061C00042001F05DF8024B05221A60E4E000BFF3
:10062C00640000206C0000200C00002070000020F2
:10063C0014000020A8000020680000204C000020BE
:10064C00100000206C4B1B68012B10D101F05AF9E3
:10065C0001F02CF9694B1B68013B694AD360694B6B
:10066C001B68013B664A5360634B00221A60664B61
:10067C005B68012B0DD1624B01225A60634B042243
:10068C001A605D4B01221A604FF4FA61012001F0EF
:10069C001FF85F4B1B68042B02D15D4B00221A60C4
:1006AC00594BDB68012B0BD1594B1B685A1C584911
:1006BC000A60184600F0D8FEFA21032001F008F871
:1006CC00514B9B68012B0ED14D4BDB68013B4C4AC7
:1006DC00D3604B4B5B68013B494A53604FF47A71D2
:1006EC00022000F0F5FF4B4B1B68012B7ED1494BD0
:1006FC0000221A60404B01221A6000F097FE01F0B4
:10070C0049F9FA21032000F0E3FF4FF4FA710420B9
:10071C0000F0DEFF3D4B05221A6067E0364B1B688C
:10072C00012B09D101F0D8F83B4B1B68013B344A33
:10073C005360314B00221A60334B5B68012B0AD19A
:10074C00324B01221A602C4B01221A6040F6B83150
:10075C00012000F0BDFF2E4B1B68042B02D12C4B4B
:10076C0000221A60284BDB68012B0BD1284B1B682D
:10077C005A1C27490A60184600F076FEFA2103201D
:10078C0000F0A6FF204B9B68012B0ED11C4BDB68A5
:10079C00013B1B4AD3601A4B5B68013B184A536000
:1007AC004FF47A71022000F093FF1A4B1B68012B57
:1007BC001ED1184B00221A600F4B01221A6000F058
:1007CC0035FE01F0E7F8FA21032000F081FF4FF429
:1007DC00FA71042000F07CFF0C4B05221A6007E034
:1007EC0000BF06E000BF04E000BF02E000BF00E075
:1007FC0000BF00BF80BD00BF6C0000200C000020BB
:10080C007000002014000020A800002064000020CC
:10081C00680000204C0000201000002080B500AFC4
:10082C00804B1B68083B032B00F2E78101A252F8B6
:10083C0023F000BF5108000855090008550A0008AC
:10084C00390B0008784B1A68784B1B681A44784BA4
:10085C001B689A4206D0764B1A68744B1B68D31AE5
:10086C00714A1360734B1B68012B10D101F008F80F
:10087C0001F060F86E4B1B68013B6F4A53606A4B8A
:10088C001B68013B6C4AD3606A4B00221A606B4BAD
:10089C005B68012B12D1684B0122DA60614B02229A
:1008AC001A60644B01221A60604B1B684FF47A7219
:1008BC0002FB03F31946012000F00AFF604B1B6892
:1008CC00042B02D15E4B00221A605C4BDB68012BBF
:1008DC000BD15B4B1B685A1C59490A60184600F037
:1008EC00C3FDFA21032000F0F3FE544B9B68012B4F
:1008FC000ED1514BDB68013B4F4AD3604E4B5B68CA
:10090C00013B4D4A53604FF47A71022000F0E0FE37
:10091C004C4B1B68012B40F072814A4B00221A6031
:10092C00444B01221A6000F081FD01F033F8FA21EA
:10093C00032000F0CDFE4FF4FA71042000F0C8FE45
:10094C00384B05221A605AE13A4B1B68012B09D12E
:10095C0001F008F8354B1B68013B374AD360354B27
:10096C0000221A60354B5B68012B15D1324B0222E9
:10097C005A60314B0422DA602A4B03221A602D4B49
:10098C0001221A60284B1B684FF47A7202FB03F3A6
:10099C001946012000F09CFE294B1B68042B02D148
:1009AC00274B00221A60254BDB68012B0BD1244B03
:1009BC001B685A1C22490A60184600F055FDFA21A2
:1009CC00032000F085FE1D4B9B68012B0ED11A4BAA
:1009DC00DB68013B184AD360174B5B68013B164A36
:1009EC0053604FF47A71022000F072FE154B1B68B5
:1009FC00012B40F00681134B00221A600D4B012293
:100A0C001A6000F013FD00F0C5FFFA21032000F07E
:100A1C005FFE4FF4FA71042000F05AFE014B0522E0
:100A2C001A60EEE06400002014000020100000208A
:100A3C000C0000206C00002070000020A80000209A
:100A4C00680000204C000020714B1B68012B10D15A
:100A5C0000F058FF00F02AFF6E4B1B68013B6E4AFA
:100A6C00D3606E4B1B68013B6B4A5360684B002292
:100A7C001A606B4B5B68012B12D1674B01225A60D9
:100A8C00684B04221A60624B01221A60664B1B6889
:100A9C004FF47A7202FB03F31946012000F018FEA2
:100AAC00624B1B68042B02D1604B00221A605C4B1A
:100ABC00DB68012B0BD15D4B1B685A1C5B490A6030
:100ACC00184600F0D1FCFA21032000F001FE544B33
:100ADC009B68012B0ED1504BDB68013B4E4AD36017
:100AEC004D4B5B68013B4C4A53604FF47A710220CA
:100AFC0000F0EEFD4E4B1B68012B40F084804C4BFC
:100B0C0000221A60424B01221A6000F08FFC00F0A8
:100B1C0041FFFA21032000F0DBFD4FF4FA710420B1
:100B2C0000F0D6FD3F4B05221A606CE0384B1B6879
:100B3C00012B09D100F0D0FE3B4B1B68013B364A20
:100B4C005360334B00221A60354B5B68012B0FD17D
:100B5C00344B01221A602E4B01221A602F4B1B685A
:100B6C004FF47A7202FB03F31946012000F0B0FD3A
:100B7C002E4B1B68042B02D12C4B00221A60284BE5
:100B8C00DB68012B0BD1294B1B685A1C27490A60C7
:100B9C00184600F069FCFA21032000F099FD204B67
:100BAC009B68012B0ED11C4BDB68013B1A4AD360AE
:100BBC00194B5B68013B184A53604FF47A71022061
:100BCC0000F086FD1A4B1B68012B1ED1184B00221E
:100BDC001A600F4B01221A6000F028FC00F0DAFEBC
:100BEC00FA21032000F074FD4FF4FA71042000F098
:100BFC006FFD0C4B05221A6007E000BF06E000BF3A
:100C0C0004E000BF02E000BF00E000BF00BF80BDF9
:100C1C006C0000200C00002070000020140000204C
:100C2C00A8000020640000201000002068000020B4
:100C3C004C00002080B500AF984B1B68042B02D1F0
:100C4C00964B00221A60964BDB68012B0BD1934B11
:100C5C001B685A1C91490A60184600F005FCFA21E1
:100C6C00032000F035FD8F4B1B68072B00F02C8107
:100C7C00072B00F3B681052B03D0062B00F08980DF
:100C8C00AFE1894B1B68012B0AD1884B1B68884A42
:100C9C00D360884B1B68864A5360834B00221A60D2
:100CAC007F4B1B69012B06D14FF4FA71042000F025
:100CBC000FFD00F095FE804B5B68012B0BD17E4B3A
:100CCC0000225A6004217D4801F0F7F9784B5B68EB
:100CDC000133774A5360764B5B68092B07DD744B05
:100CEC001B680133724A1360714B00225A60704BBF
:100CFC001A6813469B0013445B001A466C4B5B68E6
:100D0C001344632B05DD6A4B09221A60684B0922D8
:100D1C005A60694B9B68012B12D1674B00229A6079
:100D2C00634B1A6813469B0013445B001A46604BD6
:100D3C005B6813445F4A13600421604801F0BDF9FD
:100D4C005C4B1B68632B08DD5A4B63221A60584BB3
:100D5C0009221A60564B09225A60574B1B68012B0B
:100D6C0040F04181544B00221A6000F05FFB00F010
:100D7C0011FEFA21032000F0ABFC4FF4FA710420B1
:100D8C0000F0A6FC484B01221A60464B06221A6062
:100D9C0029E1454B1B68012B0AD1494B1B68444A7E
:100DAC00D360484B1B68424A53603F4B00221A6089
:100DBC003B4B1B69012B06D14FF4FA71042000F058
:100DCC0087FC00F01BFE3C4B5B68012B0BD13A4BB4
:100DDC0000225A600421394801F06FF9344B5B68EA
:100DEC000133334A5360324B5B68092B07DD304BC0
:100DFC001B6801332E4A13602D4B00225A602C4B7A
:100E0C001A6813469B0013445B001A46284B5B6818
:100E1C001344632B05DD264B09221A60244B09224F
:100E2C005A60254B9B68012B0ED1234B00229A60F4
:100E3C001F4B1A6813469B0013445B001A461C4B4D
:100E4C005B6813441F4A13601E4B1B68632B08DD41
:100E5C001C4B63221A60164B09221A60144B092290
:100E6C005A60154B1B68012B40F0BF80124B0022BF
:100E7C001A6000F0DBFA00F08DFDFA21032000F07F
:100E8C0027FC4FF4FA71042000F022FC064B0122DF
:100E9C001A60044B07221A60A7E000BF680000200C
:100EAC00A8000020640000206C0000201800002026
:100EBC00700000200C0000204C00002000080140B5
:100ECC001C000020100000204A4B1B68012B0AD18B
:100EDC00494B1B68494AD360494B1B68474A5360CE
:100EEC00444B00221A60474B1B69012B06D14FF46F
:100EFC00FA71042000F0ECFB00F090FD424B5B68B3
:100F0C00012B0BD1404B00225A6004213F4801F0C9
:100F1C00D4F83A4B5B680133384A5360374B5B6803
:100F2C00092B07DD354B1B680133344A1360334BF7
:100F3C0000225A60314B1A6813469B0013445B0025
:100F4C001A462E4B5B681344632B05DD2B4B092291
:100F5C001A602A4B09225A602B4B9B68012B0ED12D
:100F6C00294B00229A60254B1A6813469B001344A8
:100F7C005B001A46214B5B681344214A1360204BDB
:100F8C001B68632B08DD1E4B63221A601B4B092266
:100F9C001A601A4B09225A601B4B1B68012B26D175
:100FAC00194B00221A6000F041FA00F0F3FC114BCF
:100FBC0001221A60124B1B684FF47A7202FB03F386
:100FCC001946012000F084FB4FF47A71022000F0E6
:100FDC007FFBFA21032000F07BFB0D4B08221A60EB
:100FEC0005E000BF04E000BF02E000BF00E000BF6E
:100FFC0000BF80BD6C00002020000020700000208D
:10100C0014000020A80000204C0000200008014023
:10101C006400002080B582B000AF78607B68092B3B
:10102C0000F2808101A252F823F000BF6110000889
:10103C00A9100008F11000083911000881110008EE
:10104C00C91100081112000859120008A112000859
:10105C00E912000800220121B44801F016F8002220
:10106C000221B24801F011F800220421AF4801F02E
:10107C000CF800220821AD4801F007F800221021DD
:10108C00AA4801F002F800222021A84800F0FDFF38
:10109C0001224021A54800F0F8FF43E10122012183
:1010AC00A24800F0F2FF00220221A04800F0EDFF60
:1010BC00002204219D4800F0E8FF012208219B48F2
:1010CC0000F0E3FF01221021984800F0DEFF01221E
:1010DC002021964800F0D9FF01224021934800F0CE
:1010EC00D4FF1FE100220121904800F0CEFF002226
:1010FC0002218E4800F0C9FF012204218B4800F028
:10110C00C4FF00220821894800F0BFFF00221021F3
:10111C00864800F0BAFF01222021844800F0B5FF78
:10112C0000224021814800F0B0FFFBE000220121A9
:10113C007E4800F0AAFF002202217C4800F0A5FFA7
:10114C0000220421794800F0A0FF002208217748F2
:10115C0000F09BFF01221021744800F096FF012241
:10116C002021724800F091FF002240216F4800F0CE
:10117C008CFFD7E0012201216C4800F086FF002291
:10118C0002216A4800F081FF00220421674800F028
:10119C007CFF01220821654800F077FF0122102115
:1011AC00624800F072FF00222021604800F06DFFC1
:1011BC00002240215D4800F068FFB3E000220121CD
:1011CC005A4800F062FF01220221584800F05DFFEE
:1011DC0000220421554800F058FF002208215348F2
:1011EC0000F053FF01221021504800F04EFF002266
:1011FC0020214E4800F049FF002240214B4800F0CE
:10120C0044FF8FE000220121484800F03EFF0122FC
:10121C000221464800F039FF00220421434800F027
:10122C0034FF00220821414800F02FFF002210213A
:10123C003E4800F02AFF002220213C4800F025FF08
:10124C0000224021394800F020FF6BE000220121F0
:10125C00364800F01AFF00220221344800F015FF36
:10126C0000220421314800F010FF012208212F48F0
:10127C0000F00BFF012210212C4800F006FF012288
:10128C0020212A4800F001FF01224021274800F0CC
:10129C00FCFE47E000220121244800F0F6FE00226B
:1012AC000221224800F0F1FE002204211F4800F028
:1012BC00ECFE002208211D4800F0E7FE0022102160
:1012CC001A4800F0E2FE00222021184800F0DDFE52
:1012DC0000224021154800F0D8FE23E00022012115
:1012EC00124800F0D2FE00220221104800F0CDFE80
:1012FC00002204210D4800F0C8FE002208210B48F2
:10130C0000F0C3FE01221021084800F0BEFE0022AE
:10131C002021064800F0B9FE00224021034800F0CD
:10132C00B4FE00BF00BF0837BD4680BD000C0140B5
:10133C0080B582B000AF78607B68032B6ED801A2B9
:10134C0052F823F06113000893130008C51300082A
:10135C00F713000801224FF48051334800F095FE3A
:10136C0000224FF40051304800F08FFE00224FF461
:10137C0080412D4800F089FE00224FF400412A489C
:10138C0000F083FE4BE000224FF48051264800F021
:10139C007CFE01224FF40051234800F076FE00221F
:1013AC004FF48041204800F070FE00224FF40041C1
:1013BC001D4800F06AFE32E000224FF480511A48BA
:1013CC0000F063FE00224FF40051174800F05DFE60
:1013DC0001224FF48041144800F057FE00224FF4D4
:1013EC000041114800F051FE19E000224FF48051E9
:1013FC000D4800F04AFE00224FF400510A4800F05C
:10140C0044FE00224FF48041074800F03EFE0122CA
:10141C004FF40041044800F038FE00E000BF00BF6C
:10142C000837BD4680BD00BF0008014080B500AF45
:10143C0000224FF480510B4800F027FE00224FF49D
:10144C000051084800F021FE00224FF4804105486D
:10145C0000F01BFE00224FF40041024800F015FE84
:10146C0000BF80BD0008014080B582B000AF78603D
:10147C007868FFF75DFF054A7B6852F82330184601
:10148C00FFF7C8FD00BF0837BD4680BD70000020C7
:10149C0080B500AF00F0F8FA00F010F800F04AF850
:1014AC0000F094F8044801F04DFAFEF7B9FFFFF78D
:1014BC00C1FBFFF7B3F9F8E7D000002080B590B07E
:1014CC0000AF07F1180328220021184601F0EAFDAD
:1014DC003B1D00221A605A609A60DA601A6102237E
:1014EC00BB610123BB621023FB6200237B6307F10A
:1014FC001803184600F0FAFD0346002B01D000F04B
:10150C00E1F80F237B600023BB600023FB6000230A
:10151C003B6100237B613B1D0021184601F066F8FE
:10152C000346002B01D000F0CDF800BF4037BD467C
:10153C0080BD000080B586B000AF07F10803002223
:10154C001A605A609A60DA603B4600221A605A6050
:10155C001D4B4FF080421A601B4B41F63F725A6094
:10156C00194B00229A60184B0922DA60164B0022A4
:10157C001A61154B00229A61134801F093F9034646
:10158C00002B01D000F09EF84FF48053BB6007F1A4
:10159C00080319460C4801F011FB0346002B01D03F
:1015AC0000F090F800233B6000237B603B4619461B
:1015BC00054801F0E9FC0346002B01D000F082F84D
:1015CC0000BF1837BD4680BDD000002080B588B064
:1015DC0000AF07F1100300221A605A609A60DA60BB
:1015EC002E4B9B692D4A43F0100393612B4B9B6947
:1015FC0003F01003FB60FB68284B9B69274A43F000
:10160C0004039361254B9B6903F00403BB60BB6827
:10161C00224B9B69214A43F0080393611F4B9B6942
:10162C0003F008037B607B6800224FF2F6311C4804
:10163C0000F02BFD00227F211A4800F026FD4FF40C
:10164C0060433B6100237B610123BB6107F1100305
:10165C001946154800F088FB4FF2F6333B61012325
:10166C007B610023BB610223FB6107F11003194668
:10167C000B4800F079FB7F233B6101237B61002346
:10168C00BB610223FB6107F110031946054800F00A
:10169C006BFB00BF2037BD4680BD00BF0010024071
:1016AC0000080140000C01400010014080B582B0E0
:1016BC0000AF786000F02CF8FEF742FD00BF083751
:1016CC00BD4680BD80B400AF72B600BFFEE700001F
:1016DC0080B483B000AF786039603B68094A82FB04
:1016EC0003129210DB17D21A07497B6841F82320AA
:1016FC00064A7B68002142F8231000BF0C37BD4618
:10170C0080BC70476766666680000020A8000020D9
:10171C0080B483B000AF00237B6016E00F4A7B6877
:10172C0052F823305A1E0D497B6841F823200B4A8E
:10173C007B6852F82330002B04DC094A7B680121BA
:10174C0042F823107B6801337B607B68092BE5DD55
:10175C0000BF00BF0C37BD4680BC70478000002026
:10176C00A800002080B485B000AF154B9B69144ACB
:10177C0043F001039361124B9B6903F00103BB60BF
:10178C00BB680F4BDB690E4A43F08053D3610C4BA3
:10179C00DB6903F080537B607B680A4B5B68FB6002
:1017AC00FB6823F0E063FB60FB6843F08063FB6045
:1017BC00044AFB68536000BF1437BD4680BC7047B9
:1017CC00001002400000014080B584B000AF78608A
:1017DC007B681B68B3F1804F13D10C4BDB690B4A50
:1017EC0043F00103D361094BDB6903F00103FB6098
:1017FC00FB68002200211C2000F07FFA1C2000F066
:10180C0098FA00BF1037BD4680BD00BF00100240E3
:10181C0080B400AFFEE780B400AFFEE780B400AF49
:10182C00FEE780B400AFFEE780B400AFFEE780B403
:10183C0000AF00BFBD4680BC704780B400AF00BF96
:10184C00BD4680BC704780B400AF00BFBD4680BCB5
:10185C00704780B500AF00F05DF900BF80BD00009F
:10186C0080B500AF024801F0B9F800BF80BD00BFE1
:10187C00D000002080B400AF00BFBD4680BC7047D4
:10188C0080B500AF01221021074800F0FEFB0022BA
:10189C002021054800F0F9FB00224021024800F00D
:1018AC00F4FB00BF80BD00BF0008014080B500AF55
:1018BC0000221021074800F0E8FB002220210548F7
:1018CC0000F0E3FB01224021024800F0DEFB00BFE8
:1018DC0080BD00BF0008014080B500AF0022102180
:1018EC00074800F0D2FB01222021054800F0CDFB77
:1018FC0000224021024800F0C8FB00BF80BD00BFA1
:10190C000008014080B500AF01228021084800F09A
:10191C00BCFB00224FF48071054800F0B6FB00229E
:10192C004FF40071024800F0B0FB00BF80BD00BF57
:10193C000008014080B500AF00228021084800F06B
:10194C00A4FB00224FF48071054800F09EFB01229D
:10195C004FF40071024800F098FB00BF80BD00BF3F
:10196C000008014080B500AF00228021084800F03B
:10197C008CFB01224FF48071054800F086FB00229D
:10198C004FF40071024800F080FB00BF80BD00BF27
:10199C000008014080B500AF002210210F4800F074
:1019AC0074FB002220210D4800F06FFB0022402127
:1019BC000A4800F06AFB00228021084800F065FB11
:1019CC0000224FF48071054800F05FFB00224FF4B9
:1019DC000071024800F059FB00BF80BD00080140B7
:1019EC0080B500AF1021044800F067FB802102484D
:1019FC0000F063FB00BF80BD0008014080B500AF64
:101A0C002021054800F059FB4FF48071024800F08A
:101A1C0054FB00BF80BD00BF0008014080B500AF83
:101A2C004021054800F049FB4FF40071024800F0DA
:101A3C0044FB00BF80BD00BF00080140FFF71AFF48
:101A4C000B480C490C4A002302E0D458C450043310
:101A5C00C4188C42F9D3094A094C002301E01360E5
:101A6C000432A242FBD301F0F9FAFFF711FD7047E3
:101A7C00000000203000002004310008300000205D
:101A8C001C010020FEE7000080B500AF084B1B686E
:101A9C00074A43F010031360032000F023F90F20D2
:101AAC0000F008F8FFF75EFE0023184680BD00BF6B
:101ABC000020024080B582B000AF7860124B1A68EB
:101ACC00124B1B7819464FF47A73B3FBF1F3B2FB4C
:101ADC00F3F3184600F03BF90346002B01D0012329
:101AEC000EE07B680F2B0AD8002279684FF0FF308C
:101AFC0000F003F9064A7B681360002300E0012321
:101B0C0018460837BD4680BD240000202C0000205C
:101B1C002800002080B400AF054B1B781A46054BFB
:101B2C001B681344034A136000BFBD4680BC70475A
:101B3C002C0000201801002080B400AF024B1B6861
:101B4C001846BD4680BC70471801002080B485B093
:101B5C0000AF78607B6803F00703FB600C4BDB681D
:101B6C00BB60BA684FF6FF031340BB60FB681A02F8
:101B7C00BB68134343F0BF6343F40033BB60044AB8
:101B8C00BB68D36000BF1437BD4680BC704700BF34
:101B9C0000ED00E080B400AF044BDB681B0A03F0DF
:101BAC0007031846BD4680BC704700BF00ED00E03F
:101BBC0080B483B000AF0346FB7197F90730002B5C
:101BCC000BDBFB7903F01F02064997F907305B0921
:101BDC00012000FA02F241F8232000BF0C37BD4669
:101BEC0080BC704700E100E080B483B000AF0346D6
:101BFC003960FB7197F90730002B0ADB3B68DAB2CE
:101C0C000C4997F907301201D2B20B4483F8002328
:101C1C000AE03B68DAB20849FB7903F00F03043B96
:101C2C001201D2B20B441A7600BF0C37BD4680BCF1
:101C3C00704700BF00E100E000ED00E080B489B027
:101C4C0000AFF860B9607A60FB6803F00703FB61D2
:101C5C00FB69C3F10703042B28BF0423BB61FB6999
:101C6C000433062B02D9FB69033B00E000237B61A4
:101C7C004FF0FF32BB6902FA03F3DA43BB681A4038
:101C8C007B699A404FF0FF317B6901FA03F3D9432A
:101C9C007B680B40134318462437BD4680BC704705
:101CAC0080B582B000AF78607B68013BB3F1807F78
:101CBC0001D301230FE00A4A7B68013B53600F21DB
:101CCC004FF0FF30FFF790FF054B00229A60044B5A
:101CDC0007221A60002318460837BD4680BD00BF96
:101CEC0010E000E080B582B000AF78607868FFF754
:101CFC002DFF00BF0837BD4680BD80B586B000AF54
:101D0C000346B9607A60FB7300237B61FFF742FFE7
:101D1C0078617A68B9687869FFF790FF024697F99D
:101D2C000F3011461846FFF75FFF00BF1837BD464E
:101D3C0080BD80B582B000AF0346FB7197F90730C8
:101D4C001846FFF735FF00BF0837BD4680BD80B58C
:101D5C0082B000AF78607868FFF7A2FF03461846A0
:101D6C000837BD4680BD000080B48BB000AF7860F2
:101D7C00396000237B6200233B6248E101227B6ACD
:101D8C0002FA03F3FB613B681B68FA691340BB6101
:101D9C00BA69FB699A4240F037813B685B68A34A99
:101DAC0093425ED0A14A934275D8A14A934258D02F
:101DBC009F4A93426FD89F4A934252D09D4A934276
:101DCC0069D89D4A93424CD09B4A934263D89B4A14
:101DDC00934246D0994A93425DD8122B2AD8122BA3
:101DEC0059D801A252F823F06F1E0008491E0008B2
:101DFC005B1E00089D1E0008A31E0008A31E000801
:101E0C00A31E0008A31E0008A31E0008A31E0008A2
:101E1C00A31E0008A31E0008A31E0008A31E000892
:101E2C00A31E0008A31E0008A31E0008511E0008D4
:101E3C00651E0008824A934213D02CE03B68DB6895
:101E4C003B6229E03B68DB6804333B6224E03B687F
:101E5C00DB6808333B621FE03B68DB680C333B629A
:101E6C001AE03B689B68002B02D104233B6213E011
:101E7C003B689B68012B05D108233B627B68FA69A0
:101E8C001A6109E008233B627B68FA695A6103E036
:101E9C0000233B6200E000BFBB69FF2B01D87B68CD
:101EAC0001E07B6804337B61BB69FF2B02D87B6A42
:101EBC009B0002E07B6A083B9B003B617B691A68D4
:101ECC000F213B6901FA03F3DB431A40396A3B6982
:101EDC0001FA03F31A437B691A603B685B6803F0F1
:101EEC008053002B00F09080564B9B69554A43F071
:101EFC0001039361534B9B6903F00103BB60BB6807
:101F0C00514A7B6A9B08023352F82330FB607B6A90
:101F1C0003F003039B000F2202FA03F3DB43FA687E
:101F2C001340FB607B68494A93420DD07B68484A5A
:101F3C00934207D07B68474A934201D1022304E0C5
:101F4C00032302E0012300E000237A6A02F003027B
:101F5C0092009340FA681343FB603B497B6A9B08F1
:101F6C000233FA6841F823203B685B6803F4801362
:101F7C00002B06D0384B9A683749BB6913438B60EA
:101F8C0006E0354B9A68BB69DB43334913408B60E1
:101F9C003B685B6803F40013002B06D02E4BDA6809
:101FAC002D49BB691343CB6006E02B4BDA68BB6948
:101FBC00DB4329491340CB603B685B6803F4003377
:101FCC00002B06D0244B5A682349BB6913434B6042
:101FDC0006E0214B5A68BB69DB431F4913404B6039
:101FEC003B685B6803F48033002B06D01A4B1A68ED
:101FFC001949BB6913430B6006E0174B1A68BB69A0
:10200C00DB43154913400B607B6A01337B623B68F1
:10201C001A687B6A22FA03F3002B7FF4AFAE00BF81
:10202C0000BF2C37BD4680BC704700BF000032108B
:10203C0000003110000022100000211000001210CE
:10204C000000111000100240000001400008014087
:10205C00000C0140001001400004014080B485B028
:10206C0000AF78600B467B807B689A687B88134056
:10207C00002B02D00123FB7301E00023FB73FB7BDD
:10208C0018461437BD4680BC704780B483B000AF8F
:10209C0078600B467B8013467B707B78002B03D0DB
:1020AC007A887B681A6103E07B881A047B681A6162
:1020BC0000BF0C37BD4680BC704780B485B000AF04
:1020CC0078600B467B807B68DB68FB607A88FB68FA
:1020DC0013401A04FB68D9437B880B401A437B6876
:1020EC001A6100BF1437BD4680BC704780B586B0FE
:1020FC0000AF78607B68002B01D101236CE27B6818
:10210C001B6803F00103002B00F08780924B5B6887
:10211C0003F00C03042B0CD08F4B5B6803F00C0307
:10212C00082B12D18C4B5B6803F48033B3F5803FE2
:10213C000BD1894B1B6803F40033002B6CD07B68EC
:10214C005B68002B68D1012346E27B685B68B3F5C2
:10215C00803F06D1804B1B687F4A43F48033136069
:10216C002EE07B685B68002B0CD17B4B1B687A4A9A
:10217C0023F480331360784B1B68774A23F4802355
:10218C0013601DE07B685B68B3F5A02F0CD1724B1C
:10219C001B68714A43F4802313606F4B1B686E4AB3
:1021AC0043F4803313600BE06B4B1B686A4A23F4D7
:1021BC0080331360684B1B68674A23F480231360D9
:1021CC007B685B68002B13D0FFF7B6FC386108E026
:1021DC00FFF7B2FC02463B69D31A642B01D90323E7
:1021EC00FAE15D4B1B6803F40033002BF0D014E0D4
:1021FC00FFF7A2FC386108E0FFF79EFC02463B6942
:10220C00D31A642B01D90323E6E1534B1B6803F467
:10221C000033002BF0D100E000BF7B681B6803F09B
:10222C000203002B63D04C4B5B6803F00C03002BB8
:10223C000BD0494B5B6803F00C03082B1CD1464BAD
:10224C005B6803F48033002B16D1434B1B6803F0FF
:10225C000203002B05D07B681B69012B01D00123E5
:10226C00BAE13D4B1B6823F0F8027B685B69DB002D
:10227C00394913430B603AE07B681B69002B20D073
:10228C00364B01221A60FFF757FC386108E0FFF764
:10229C0053FC02463B69D31A022B01D903239BE161
:1022AC002D4B1B6803F00203002BF0D02A4B1B684C
:1022BC0023F0F8027B685B69DB00274913430B6052
:1022CC0015E0264B00221A60FFF736FC386108E057
:1022DC00FFF732FC02463B69D31A022B01D90323C8
:1022EC007AE11D4B1B6803F00203002BF0D17B68D5
:1022FC001B6803F00803002B3AD07B689B69002B0A
:10230C0019D0174B01221A60FFF716FC386108E050
:10231C00FFF712FC02463B69D31A022B01D90323A7
:10232C005AE10D4B5B6A03F00203002BF0D0012045
:10233C0000F09AFA1CE00A4B00221A60FFF7FCFB33
:10234C0038610FE0FFF7F8FB02463B69D31A022B0A
:10235C0008D9032340E100BF0010024000004242B4
:10236C00800442429E4B5B6A03F00203002BE9D1CE
:10237C007B681B6803F00403002B00F0A68000238D
:10238C00FB75974BDB6903F08053002B0DD1944BFD
:10239C00DB69934A43F08053D361914BDB6903F0C3
:1023AC008053BB60BB680123FB758E4B1B6803F429
:1023BC008073002B18D18B4B1B688A4A43F48073B3
:1023CC001360FFF7B9FB386108E0FFF7B5FB024675
:1023DC003B69D31A642B01D90323FDE0814B1B68A5
:1023EC0003F48073002BF0D07B68DB68012B06D1E3
:1023FC007B4B1B6A7A4A43F0010313622DE07B6826
:10240C00DB68002B0CD1764B1B6A754A23F0010359
:10241C001362734B1B6A724A23F0040313621CE0B1
:10242C007B68DB68052B0CD16D4B1B6A6C4A43F047
:10243C00040313626A4B1B6A694A43F0010313627B
:10244C000BE0674B1B6A664A23F001031362644B73
:10245C001B6A634A23F0040313627B68DB68002B5E
:10246C0015D0FFF769FB38610AE0FFF765FB024600
:10247C003B69D31A41F28832934201D90323ABE072
:10248C00574B1B6A03F00203002BEED014E0FFF74E
:10249C0053FB38610AE0FFF74FFB02463B69D31A46
:1024AC0041F28832934201D9032395E04C4B1B6ACD
:1024BC0003F00203002BEED1FB7D012B05D1484B21
:1024CC00DB69474A23F08053D3617B68DB69002BBF
:1024DC0000F08180424B5B6803F00C03082B61D049
:1024EC007B68DB69022B46D13F4B00221A60FFF759
:1024FC0023FB386108E0FFF71FFB02463B69D31A48
:10250C00022B01D9032367E0354B1B6803F00073E2
:10251C00002BF0D17B681B6AB3F5803F08D1304BA0
:10252C005B6823F400327B689B682D4913434B6036
:10253C002B4B5B6823F474127B68196A7B685B6AAB
:10254C000B43274913434B60274B01221A60FFF7BB
:10255C00F3FA386108E0FFF7EFFA02463B69D31A49
:10256C00022B01D9032337E01D4B1B6803F00073CA
:10257C00002BF0D02FE01C4B00221A60FFF7DCFA86
:10258C00386108E0FFF7D8FA02463B69D31A022BF0
:10259C0001D9032320E0124B1B6803F00073002BBE
:1025AC00F0D118E07B68DB69012B01D1012313E02A
:1025BC000B4B5B68FB60FB6803F480327B681B6A27
:1025CC009A4206D1FB6803F470127B685B6A9A42EC
:1025DC0001D0012300E0002318461837BD4680BD0A
:1025EC0000100240007000406000424280B584B090
:1025FC0000AF786039607B68002B01D10123D0E0FB
:10260C006A4B1B6803F007033A689A4210D9674B70
:10261C001B6823F0070265493B6813430B60634B4F
:10262C001B6803F007033A689A4201D00123B8E013
:10263C007B681B6803F00203002B20D07B681B68AF
:10264C0003F00403002B05D0594B5B68584A43F444
:10265C00E06353607B681B6803F00803002B05D014
:10266C00534B5B68524A43F460535360504B5B6866
:10267C0023F0F0027B689B684D4913434B607B68E9
:10268C001B6803F00103002B40D07B685B68012BB7
:10269C0007D1474B1B6803F40033002B15D10123E2
:1026AC007FE07B685B68022B07D1414B1B6803F012
:1026BC000073002B09D1012373E03D4B1B6803F021
:1026CC000203002B01D101236BE0394B5B6823F033
:1026DC0003027B685B68364913434B60FFF72CFAA7
:1026EC00F8600AE0FFF728FA0246FB68D31A41F2B9
:1026FC008832934201D9032353E02D4B5B6803F0DE
:10270C000C027B685B689B009A42EBD1274B1B68E1
:10271C0003F007033A689A4210D2244B1B6823F04B
:10272C00070222493B6813430B60204B1B6803F0E4
:10273C0007033A689A4201D0012332E07B681B6898
:10274C0003F00403002B08D0194B5B6823F4E06200
:10275C007B68DB68164913434B607B681B6803F08E
:10276C000803002B09D0124B5B6823F460527B6882
:10277C001B69DB000E4913434B6000F021F8024645
:10278C000B4B5B681B0903F00F030A49CB5C22FA65
:10279C0003F3094A1360094B1B681846FFF78AF9C3
:1027AC00002318461037BD4680BD00BF00200240F4
:1027BC0000100240D830000824000020280000201F
:1027CC0080B487B000AF0023FB600023BB60002304
:1027DC007B6100237B6000233B611E4B5B68FB60CD
:1027EC00FB6803F00C03042B02D0082B03D027E06A
:1027FC00194B3B6127E0FB689B0C03F00F03174A56
:10280C00D35C7B60FB6803F48033002B10D0114B3E
:10281C005B685B0C03F00103114AD35CBB607B6803
:10282C000D4A02FB03F2BB68B2FBF3F37B6104E0DD
:10283C007B680C4A02FB03F37B617B693B6102E022
:10284C00054B3B6100BF3B6918461C37BD4680BC3D
:10285C00704700BF0010024000127A00E8300008F8
:10286C00F830000800093D0080B485B000AF7860F6
:10287C000A4B1B680A4AA2FB03235B0A7A6802FB19
:10288C0003F3FB6000BFFB685A1EFA60002BF9D102
:10289C0000BF00BF1437BD4680BC70472400002029
:1028AC00D34D621080B582B000AF78607B68002B8E
:1028BC0001D1012341E07B6893F83D30DBB2002B62
:1028CC0006D17B68002283F83C207868FEF77CFFF9
:1028DC007B68022283F83D207B681A687B6804338E
:1028EC001946104600F056FA7B68012283F8462000
:1028FC007B68012283F83E207B68012283F83F200D
:10290C007B68012283F840207B68012283F84120F8
:10291C007B68012283F842207B68012283F84320E4
:10292C007B68012283F844207B68012283F84520D0
:10293C007B68012283F83D20002318460837BD46EA
:10294C0080BD000080B485B000AF78607B6893F8E0
:10295C003D30DBB2012B01D0012335E07B68022234
:10296C0083F83D207B681B68DA687B681B6842F043
:10297C000102DA607B681B68164A934209D07B68B7
:10298C001B68B3F1804F04D07B681B68124A9342DA
:10299C0011D17B681B689B6803F00703FB60FB6825
:1029AC00062B10D07B681B681A687B681B6842F08A
:1029BC0001021A6007E07B681B681A687B681B6859
:1029CC0042F001021A60002318461437BD4680BC41
:1029DC00704700BF002C01400004004080B584B05B
:1029EC0000AF78607B681B68DB68FB607B681B68EA
:1029FC001B69BB60BB6803F00203002B20D0FB6893
:102A0C0003F00203002B1BD07B681B686FF00202E3
:102A1C001A617B6801221A777B681B689B6903F03B
:102A2C000303002B03D0786800F098F905E0786870
:102A3C0000F08BF9786800F09AF97B6800221A771D
:102A4C00BB6803F00403002B20D0FB6803F00403E5
:102A5C00002B1BD07B681B686FF004021A617B682B
:102A6C0002221A777B681B689B6903F44073002B66
:102A7C0003D0786800F072F905E0786800F065F929
:102A8C00786800F074F97B6800221A77BB6803F051
:102A9C000803002B20D0FB6803F00803002B1BD08D
:102AAC007B681B686FF008021A617B6804221A7736
:102ABC007B681B68DB6903F00303002B03D0786889
:102ACC0000F04CF905E0786800F03FF9786800F008
:102ADC004EF97B6800221A77BB6803F01003002BB9
:102AEC0020D0FB6803F01003002B1BD07B681B6805
:102AFC006FF010021A617B6808221A777B681B68DA
:102B0C00DB6903F44073002B03D0786800F026F9DE
:102B1C0005E0786800F019F9786800F028F97B680E
:102B2C0000221A77BB6803F00103002B0CD0FB6862
:102B3C0003F00103002B07D07B681B686FF00102C8
:102B4C001A617868FEF7B2FDBB6803F08003002BB6
:102B5C000CD0FB6803F08003002B07D07B681B684C
:102B6C006FF080021A61786800F06FFABB6803F0AE
:102B7C004003002B0CD0FB6803F04003002B07D064
:102B8C007B681B686FF040021A61786800F0F8F8F7
:102B9C00BB6803F02003002B0CD0FB6803F0200370
:102BAC00002B07D07B681B686FF020021A617868D5
:102BBC0000F042FA00BF1037BD4680BD80B584B02E
:102BCC0000AF786039600023FB737B6893F83C306E
:102BDC00012B01D10223B4E07B68012283F83C2055
:102BEC007B68022283F83D207B681B689B68BB6076
:102BFC00BB6823F07703BB60BB6823F47F43BB60E7
:102C0C007B681B68BA689A603B681B68B3F5005F09
:102C1C003ED0B3F5005F00F28780B3F5805F00F023
:102C2C008680B3F5805F7FD8702B1AD0702B7BD841
:102C3C00602B50D0602B77D8502B3CD0502B73D8B6
:102C4C00402B58D0402B6FD8302B64D0302B6BD806
:102C5C00202B60D0202B67D8002B5CD0102B5AD0A7
:102C6C0062E07B6818683B6899683B685A683B6807
:102C7C00DB6800F06AF97B681B689B68BB60BB680B
:102C8C0043F07703BB607B681B68BA689A604FE0BF
:102C9C007B6818683B6899683B685A683B68DB68D6
:102CAC0000F053F97B681B689A687B681B6842F4D8
:102CBC0080429A603CE07B6818683B6859683B68C6
:102CCC00DB681A4600F0CAF87B681B68502118466E
:102CDC0000F021F92CE07B6818683B6859683B6868
:102CEC00DB681A4600F0E8F87B681B686021184620
:102CFC0000F011F91CE07B6818683B6859683B6868
:102D0C00DB681A4600F0AAF87B681B68402118465D
:102D1C0000F001F90CE07B681A683B681B681946E7
:102D2C00104600F0F8F803E00123FB7300E000BF4D
:102D3C007B68012283F83D207B68002283F83C20CD
:102D4C00FB7B18461037BD4680BD80B483B000AF06
:102D5C00786000BF0C37BD4680BC704780B483B030
:102D6C0000AF786000BF0C37BD4680BC704780B4A4
:102D7C0083B000AF786000BF0C37BD4680BC704795
:102D8C0080B483B000AF786000BF0C37BD4680BC08
:102D9C007047000080B485B000AF786039607B6804
:102DAC001B68FB607B682B4A934207D07B68B3F1AE
:102DBC00804F03D07B68284A934208D1FB6823F0EC
:102DCC007003FB603B685B68FA681343FB607B68CD
:102DDC00204A934207D07B68B3F1804F03D07B68C5
:102DEC001D4A934208D1FB6823F44073FB603B6897
:102DFC00DB68FA681343FB60FB6823F080023B68D6
:102E0C005B691343FB607B68FA681A603B689A68DD
:102E1C007B68DA623B681A687B689A627B680D4A49
:102E2C00934203D13B681A697B681A637B68012261
:102E3C005A617B681B6903F00103002B05D07B688A
:102E4C001B6923F001027B681A6100BF1437BD4671
:102E5C0080BC7047002C01400004004080B487B057
:102E6C0000AFF860B9607A60FB681B6A7B61FB6835
:102E7C001B6A23F00102FB681A62FB689B693B61C9
:102E8C003B6923F0F0033B617B681B013A691343F8
:102E9C003B617B6923F00A037B617A69BB6813434E
:102EAC007B61FB683A699A61FB687A691A6200BFB8
:102EBC001C37BD4680BC704780B487B000AFF8604B
:102ECC00B9607A60FB681B6A7B61FB681B6A23F044
:102EDC001002FB681A62FB689B693B613B6923F437
:102EEC0070433B617B681B033A6913433B617B690D
:102EFC0023F0A0037B61BB681B017A6913437B61E0
:102F0C00FB683A699A61FB687A691A6200BF1C37E0
:102F1C00BD4680BC704780B485B000AF7860396026
:102F2C007B689B68FB60FB6823F07003FB603A686E
:102F3C00FB68134343F00703FB607B68FA689A60F5
:102F4C0000BF1437BD4680BC704780B487B000AF5B
:102F5C00F860B9607A603B60FB689B687B617B6959
:102F6C0023F47F437B613B681A027B681A43BB687E
:102F7C0013437A6913437B61FB687A699A6000BFDB
:102F8C001C37BD4680BC704780B485B000AF7860FC
:102F9C0039607B6893F83C30012B01D1022341E06E
:102FAC007B68012283F83C207B68022283F83D2059
:102FBC007B681B685B68FB607B681B689B68BB60FD
:102FCC00FB6823F07003FB603B681B68FA681343D3
:102FDC00FB607B681B68FA685A607B681B68144A44
:102FEC00934209D07B681B68B3F1804F04D07B6897
:102FFC001B68104A93420CD1BB6823F08003BB6062
:10300C003B685B68BA681343BB607B681B68BA6833
:10301C009A607B68012283F83D207B68002283F84C
:10302C003C20002318461437BD4680BC704700BFB7
:10303C00002C01400004004080B483B000AF7860E5
:10304C0000BF0C37BD4680BC704780B483B000AF66
:10305C00786000BF0C37BD4680BC704770B5002649
:10306C000C4D0D4C641BA410A64209D100F022F8A3
:10307C0000260A4D0A4C641BA410A64205D170BD53
:10308C0055F8043B98470136EEE755F8043B984752
:10309C000136F2E7FC300008FC300008FC30000878
:1030AC000031000803460244934200D1704703F8F4
:1030BC00011BF9E7F8B500BFF8BC08BC9E46704789
:0C30CC00F8B500BFF8BC08BC9E46704779
:1030D80000000000000000000102030406070809C0
:1030E80002030405060708090A0B0C0D0E0F101041
:0430F80001020000D1
:0430FC003101000896
:043100000D010008B5
:10310400C8000000C8000000C8000000050000005E
:1031140002000000030000000200000003000000A1
:103124000400000000127A001000000001000000FA
:0400000508001A498C
:00000001FF
