:020000040800F2
:1000000000280020311C0008051A00080B1A0008FF
:10001000111A0008171A00081D1A00080000000035
:10002000000000000000000000000000231A00088B
:100030002F1A0008000000003B1A0008471A0008A9
:10004000791C0008791C0008791C0008791C00083C
:10005000791C0008791C0008791C0008791C00082C
:10006000791C0008791C0008791C0008791C00081C
:10007000791C0008791C0008791C0008791C00080C
:10008000791C0008791C0008791C0008791C0008FC
:10009000791C0008791C0008791C0008791C0008EC
:1000A000791C0008791C0008791C0008791C0008DC
:1000B000551A0008791C000800000000791C00088F
:1000C000791C00080000000000000000791C0008F6
:1000D00000000000791C0008791C000800000000E6
:1000E000791C0008791C0008791C00080000000039
:1000F0000000000000000000000000000000000000
:0C01000000000000000000005FF808F1A3
:10010C0010B5054C237833B9044B13B10448AFF345
:10011C0000800123237010BD30000020000000007F
:10012C00A832000808B5034B1BB103490348AFF3D1
:10013C00008008BD0000000034000020A832000838
:10014C0080B582B000AF00237B6011E07B68002B90
:10015C0001D100F015F87B68012B01D100F080F87B
:10016C007B68022B01D100F0EBF87B6801337B60DC
:10017C007B68022BEADD00BF00BF0837BD4680BD9F
:10018C0080B500AF324B1B68042B5AD801A252F831
:10019C0023F000BFB5010008CD010008ED010008F7
:1001AC004F020008190200084FF40051294802F0D0
:1001BC0049F80346012B46D0254B01221A6045E035
:1001CC004FF40051234802F03DF80346012B03D1B4
:1001DC001F4B00221A6039E01D4B02221A6035E0D9
:1001EC004FF400511B4802F02DF80346012B03D1AC
:1001FC00174B00221A6029E0174B01221A60144B8E
:10020C0004221A60154BC8221A601FE0134B1B689E
:10021C00013B124A1360114B1B68002B05D10F4B8D
:10022C00C8221A600C4B01221A604FF40051094885
:10023C0002F008F80346012B07D1054B00221A6087
:10024C0003E000BF02E000BF00E000BF80BD00BFC4
:10025C0058000020001001404C000020000000203D
:10026C0080B500AF324B5B68042B5AD801A252F810
:10027C0023F000BF95020008AD020008CD02000873
:10028C002F030008F90200084FF48041294801F0BF
:10029C00D9FF0346012B46D0254B01225A6045E07D
:1002AC004FF48041234801F0CDFF0346012B03D1CD
:1002BC001F4B00225A6039E01D4B02225A6035E078
:1002CC004FF480411B4801F0BDFF0346012B03D1C5
:1002DC00174B00225A6029E0174B01225A60144B2D
:1002EC0004225A60154BC8225A601FE0134B5B68FE
:1002FC00013B124A5360114B5B68002B05D10F4B2D
:10030C00C8225A600C4B01225A604FF480410948B4
:10031C0001F098FF0346012B07D1054B00225A60D0
:10032C0003E000BF02E000BF00E000BF80BD00BFE3
:10033C0058000020001001404C000020000000205C
:10034C0080B500AF324B9B68042B5AD801A252F8EF
:10035C0023F000BF750300088D030008AD030008EF
:10036C000F040008D90300084FF40041294801F09C
:10037C0069FF0346012B46D0254B01229A6045E0CC
:10038C004FF40041234801F05DFF0346012B03D1DC
:10039C001F4B00229A6039E01D4B02229A6035E017
:1003AC004FF400411B4801F04DFF0346012B03D1D4
:1003BC00174B00229A6029E0174B01229A60144BCC
:1003CC0004229A60154BC8229A601FE0134B9B685D
:1003DC00013B124A9360114B9B68002B05D10F4BCC
:1003EC00C8229A600C4B01229A604FF400410948D4
:1003FC0001F028FF0346012B07D1054B00229A6020
:10040C0003E000BF02E000BF00E000BF80BD00BF02
:10041C0058000020001001404C000020000000207B
:10042C0080B500AF854B1B68042B00F25B8301A2E7
:10043C0052F823F055040008C70400087D06000894
:10044C00F1070008A10900087D4B1A687D4B1B6859
:10045C001A447D4B1B689A4206D07B4B1A68794B29
:10046C001B68D31A764A1360774B1B68013B774A9B
:10047C001360734B1B68013B754A1360714B1B680F
:10048C00013B744A13606E4B1B684FF47A7202FB8B
:10049C0003F31946012001F00FFA4FF47A71022090
:1004AC0001F00AFAFA21032001F006FA6A4B012244
:1004BC001A60624B01221A601DE3674B1B68012B0B
:1004CC0038D101F0D1FA01F029FB604B1B68634A6B
:1004DC0082FB03129210DB17D31A614A13605B4B39
:1004EC0019685E4B83FB01239A10CB17D21A134663
:1004FC009B0013445B00CA1A594B5A60544B1B683F
:10050C00564A82FB03129210DB17D31A544A93609B
:10051C004F4B1968514B83FB01239A10CB17D21AFE
:10052C0013469B0013445B00CA1A4D4BDA604A4BCE
:10053C0000221A604B4B5B68012B0FD13F4B022200
:10054C001A60454B01221A603E4B1B684FF47A72BD
:10055C0002FB03F31946012001F0AEF9424B1B6874
:10056C00042B02D1404B00221A603E4BDB68012B5E
:10057C000BD13D4B1B685A1C3B490A60184601F0D5
:10058C0051F8FA21032001F097F9364B9B68012BA7
:10059C0026D1334BDB68013B314AD360304BDB68EF
:1005AC00002B07DA2E4B0922DA602D4B9B68013B9E
:1005BC002B4A93602A4B5B68013B294A5360284BBA
:1005CC005B68002B07DA264B09225A60244B1B6808
:1005DC00013B234A13604FF47A71022001F06CF94D
:1005EC00224B1B68012B15D1204B00221A601A4B91
:1005FC0001221A6000F0F8FF01F0C0FAFA21032082
:10060C0001F05AF94FF4FA71042001F055F90B4B33
:10061C0005221A60154B5B68012B40F065820E4B6E
:10062C0001221A60114B00225A6000F0DDFF01F02C
:10063C00A5FA024B08221A6056E200BF64000020A3
:10064C0014000020100000200C000020D800002016
:10065C00D4000020D00000206C0000206766666685
:10066C0070000020A8000020680000204C00002032
:10067C00534B1B68012B1DD101F068FA514B1B68C1
:10068C00514A82FB03129210DB17D31A4F4A936024
:10069C004C4B19684C4B83FB01239A10CB17D21A85
:1006AC0013469B0013445B00CA1A484BDA60444B58
:1006BC0000221A60464B5B68012B0FD1454B03227D
:1006CC001A603F4B01221A60434B1B684FF47A723D
:1006DC0002FB03F31946012001F0EEF83F4B1B68B7
:1006EC00042B02D13D4B00221A60394BDB68012BE5
:1006FC000BD13A4B1B685A1C38490A60184600F05B
:10070C0091FFFA21032001F0D7F8314B9B68012BA4
:10071C0026D12E4BDB68013B2C4AD3602B4BDB687C
:10072C00002B07DA294B0922DA60284B9B68013B26
:10073C00264A9360254B5B68013B244A5360234B4C
:10074C005B68002B07DA214B09225A601F4B1B6890
:10075C00013B1E4A13604FF47A71022001F0ACF891
:10076C001F4B1B68012B15D11D4B00221A60144B1B
:10077C0001221A6000F038FF01F000FAFA21032080
:10078C0001F09AF84FF4FA71042001F095F8114B2E
:10079C0005221A60124B5B68012B40F0A781084BB5
:1007AC0001221A600E4B00225A6000F01DFF01F06E
:1007BC00E5F9034B01221A60064B08221A6095E1F9
:1007CC006C000020D0000020676666667000002078
:1007DC00A800002064000020140000206800002005
:1007EC004C000020614B1B68012B38D101F07EF9C5
:1007FC0001F050F95E4B1B685E4A82FB03129210AB
:10080C00DB17D31A5C4A9360594B1968594B83FB1D
:10081C0001239A10CB17D21A13469B0013445B008A
:10082C00CA1A554BDA60554B1B68524A82FB0312AD
:10083C009210DB17D31A504A1360504B19684D4B6A
:10084C0083FB01239A10CB17D21A13469B00134437
:10085C005B00CA1A484B5A60444B00221A60484B42
:10086C005B68012B0FD1474B04221A603F4B0122CE
:10087C001A60454B1B684FF47A7202FB03F319465E
:10088C00012001F019F8414B1B68042B02D13F4B9E
:10089C0000221A603A4BDB68012B0BD13B4B1B68D7
:1008AC005A1C3A490A60184600F0BCFEFA21032093
:1008BC0001F002F8324B9B68012B26D12E4BDB68E2
:1008CC00013B2D4AD3602C4BDB68002B07DA2A4BFB
:1008DC000922DA60284B9B68013B274A9360264B20
:1008EC005B68013B244A5360234B5B68002B07DA9F
:1008FC00214B09225A60204B1B68013B1E4A136096
:10090C004FF47A71022000F0D7FF214B1B68012BAA
:10091C0015D11F4B00221A60144B01221A6000F0F3
:10092C0063FE01F02BF9FA21032000F0C5FF4FF410
:10093C00FA71042000F0C0FF124B05221A60144B10
:10094C005B68012B40F0D480084B01221A60104BDD
:10095C0000225A6000F048FE01F010F9034B01220E
:10096C001A60084B08221A60C2E000BF6C0000201D
:10097C00D80000206766666670000020D400002056
:10098C00A800002064000020100000206800002057
:10099C004C000020594B1B68012B1DD101F090F825
:1009AC00574B1B68574A82FB03129210DB17D31A62
:1009BC00554A1360524B1968524B83FB01239A1012
:1009CC00CB17D21A13469B0013445B00CA1A4E4B2A
:1009DC005A604A4B00221A604C4B5B68012B0FD1BA
:1009EC004B4B01221A60454B01221A60494B1B6884
:1009FC004FF47A7202FB03F31946012000F05CFFFE
:100A0C00454B1B68042B02D1434B00221A603F4B11
:100A1C00DB68012B0BD1404B1B685A1C3E490A600A
:100A2C00184600F0FFFDFA21032000F045FF374B7C
:100A3C009B68012B26D1344BDB68013B324AD360D7
:100A4C00314BDB68002B07DA2F4B0922DA602E4B77
:100A5C009B68013B2C4A93602B4B5B68013B2A4AF9
:100A6C005360294B5B68002B07DA274B09225A602D
:100A7C00254B1B68013B244A13604FF47A7102200A
:100A8C0000F01AFF254B1B68012B15D1234B0022BC
:100A9C001A601A4B01221A6000F0A6FD01F06EF8E4
:100AAC00FA21032000F008FF4FF4FA71042000F043
:100ABC0003FF174B05221A60184B5B68012B19D1E9
:100ACC000E4B01221A60154B00225A6000F08CFD6F
:100ADC0001F054F8FA21032000F0EEFE0C4B082232
:100AEC001A6007E000BF06E000BF04E000BF02E0B0
:100AFC0000BF00E000BF00BF80BD00BF6C00002045
:100B0C00D00000206766666670000020A8000020F8
:100B1C006400002014000020680000204C0000201D
:100B2C0080B500AF864B1B680A2B00F0AD800A2BFA
:100B3C0000F3FC80082B02D0092B53D0F6E0814B3C
:100B4C001B68012B10D17F4B00221A607E4B0022B8
:100B5C009A607D4B9B687C4A13607B4B0522DA6064
:100B6C00794BDB68784A5360784B1B68042B02D1B5
:100B7C00764B00221A60764BDB68012B0BD1734B42
:100B8C001B685A1C71490A60184600F04BFDFA218B
:100B9C00032000F091FE00F067FF00F0A7FF6D4B03
:100BAC005B68012B0ED104216B4801F07AFB654B7D
:100BBC0001221A60674B00225A6000F0DFFF604B85
:100BCC0009221A60634B9B68012B40F0B180042111
:100BDC00614801F066FB5F4B00229A60584B002283
:100BEC001A60A5E0574B1B68012B10D1554B002206
:100BFC001A60554B00229A60534B9B68524A136003
:100C0C00514B0622DA60504BDB684F4A53604F4B16
:100C1C001B68042B02D14D4B00221A604C4BDB6835
:100C2C00012B0BD1494B1B685A1C48490A601846CA
:100C3C0000F0F8FCFA21032000F03EFE00F040FF2B
:100C4C0000F084FF434B5B68012B0ED1042142481A
:100C5C0001F027FB3B4B01221A603E4B00225A60ED
:100C6C0000F08CFF364B0A221A603A4B9B68012B22
:100C7C0060D10421384801F014FB364B00229A60F5
:100C8C002F4B00221A6055E02E4B1B68012B10D104
:100C9C002C4B00221A602C4B00229A602A4B9B682A
:100CAC00294A1360284B0722DA60274BDB68264A57
:100CBC005360264B1B68042B02D1244B00221A6074
:100CCC00234BDB68012B0BD1204B1B685A1C1F4993
:100CDC000A60184600F0A6FCFA21032000F0ECFD97
:100CEC0000F0D8FE00F01AFF1A4B5B68012B0ED1F6
:100CFC000421194801F0D5FA124B01221A60154B48
:100D0C0000225A6000F03AFF0D4B08221A60114B7A
:100D1C009B68012B10D104210F4801F0C2FA0D4B36
:100D2C0000229A60064B00221A6005E000BF04E026
:100D3C0000BF02E000BF00E000BF00BF80BD00BFED
:100D4C00640000206C00002070000020680000206F
:100D5C00A80000204C0000200008014080B500AF26
:100D6C00644B1B68042B02D1624B00221A60624B4D
:100D7C00DB68012B0BD15F4B1B685A1C5D490A6069
:100D8C00184600F04FFCFA21032000F095FD5B4B58
:100D9C001B68072B00F06681072B00F3FA81052BEB
:100DAC0003D0062B00F0BA80F3E1554B1B68012BE6
:100DBC0022D1544B00229A60534B1B68514AD3608A
:100DCC00524B1B68524A82FB03129210DB17D31A48
:100DDC004C4A13604D4B19684D4B83FB01239A1001
:100DEC00CB17D21A13469B0013445B00CA1A454B0F
:100DFC005A60434B00221A603F4B1B69012B06D1F2
:100E0C004FF4FA71042000F057FD00F0DDFE414B69
:100E1C005B68012B0BD13F4B00225A6004213E48EA
:100E2C0001F03FFA374B5B680133364A5360354B60
:100E3C005B68092B07DD334B1B680133314A1360A8
:100E4C00304B00225A602F4B1A6813469B001344F8
:100E5C005B001A462B4B5B681344632B05DD294B57
:100E6C0009221A60274B09225A602A4B9B68012BD6
:100E7C0012D1284B00229A60224B1A6813469B0011
:100E8C0013445B001A461F4B5B6813441F4A1360E4
:100E9C000421214801F005FA1C4B1B68632B08DD6B
:100EAC001A4B63221A60174B09221A60154B092240
:100EBC005A60184B1B68012B40F06D8104211648B9
:100ECC0001F0EFF9134B00221A6000F08DFB00F0DB
:100EDC0055FEFA21032000F0EFFC4FF4FA710420C8
:100EEC0000F0EAFC064B01221A60044B06221A6041
:100EFC0051E100BF68000020A80000206400002021
:100F0C006C00002070000020180000200C00002055
:100F1C00676666664C00002000080140A14B1B6808
:100F2C00012B22D1A04B00229A60A04B1B689E4A39
:100F3C00D3609F4B1B689F4A82FB03129210DB17F6
:100F4C00D31A994A13609A4B19689A4B83FB012365
:100F5C009A10CB17D21A13469B0013445B00CA1A83
:100F6C00914B5A608F4B00221A60934B1B69012BDB
:100F7C0006D14FF4FA71042000F09EFC00F032FE12
:100F8C008E4B5B68012B0BD18C4B00225A600421D9
:100F9C008B4801F086F9844B5B680133824A5360BD
:100FAC00814B5B68092B07DD7F4B1B6801337E4A45
:100FBC0013607D4B00225A607B4B1A6813469B00D2
:100FCC0013445B001A46784B5B681344632B05DDB6
:100FDC00754B09221A60744B09225A60774B9B6837
:100FEC00012B12D10421764801F05BF9734B0022DE
:100FFC009A606D4B1A6813469B0013445B001A46AB
:10100C00694B5B6813446A4A1360694B1B68632B1A
:10101C0008DD674B63221A60634B09221A60624B2E
:10102C0009225A60654B1B68012B40F0B6800421E5
:10103C00634801F036F9614B00221A6000F0D4FAD3
:10104C0000F09CFDFA21032000F036FC4FF4FA71FD
:10105C00042000F031FC534B01221A60594B07223B
:10106C001A609AE04F4B1B68012B22D14E4B002289
:10107C009A60554B1B684C4AD360544B1B684D4AC5
:10108C0082FB03129210DB17D31A474A13604F4BA3
:10109C001968484B83FB01239A10CB17D21A1346BD
:1010AC009B0013445B00CA1A3F4B5A603D4B002215
:1010BC001A60414B1B69012B06D14FF4FA710420C5
:1010CC0000F0FAFB00F09EFD3C4B5B68012B0BD152
:1010DC003A4B00225A600421394801F0E2F8324BB5
:1010EC005B680133304A53602F4B5B68092B07DD7B
:1010FC002D4B1B6801332C4A13602B4B00225A607A
:10110C00294B1A6813469B0013445B001A46264B66
:10111C005B681344632B05DD234B09221A60224BB9
:10112C0009225A60254B9B68012B12D104212448BB
:10113C0001F0B7F8214B00229A601B4B1A6813463A
:10114C009B0013445B001A46174B5B6813441F4A01
:10115C0013601E4B1B68632B08DD1C4B63221A604B
:10116C00114B09221A60104B09225A60134B1B6851
:10117C00012B14D10421124801F093F80F4B0022DB
:10118C001A6000F031FA00F0F9FC0E4B00221A60E4
:10119C0005E000BF04E000BF02E000BF00E000BFBC
:1011AC0000BF80BD6C000020700000201C000020DF
:1011BC001000002067666666A80000204C00002026
:1011CC0000080140640000202000002014000020D2
:1011DC0080B582B000AF78607B68092B00F280810B
:1011EC0001A252F823F000BF1D120008651200087E
:1011FC00AD120008F51200083D1300088513000815
:10120C00CD130008151400085D140008A51400087F
:10121C0000220121B44801F02CF800220221B2482E
:10122C0001F027F800220421AF4801F022F8002237
:10123C000821AD4801F01DF800221021AA4801F048
:10124C0018F800222021A84801F013F801224021AF
:10125C00A54801F00EF843E101220121A24801F05A
:10126C0008F800220221A04801F003F80022042112
:10127C009D4800F0FEFF012208219B4800F0F9FF79
:10128C0001221021984800F0F4FF012220219648F9
:10129C0000F0EFFF01224021934800F0EAFF1FE12C
:1012AC0000220121904800F0E4FF002202218E4828
:1012BC0000F0DFFF012204218B4800F0DAFF00224E
:1012CC000821894800F0D5FF00221021864800F043
:1012DC00D0FF01222021844800F0CBFF00224021C6
:1012EC00814800F0C6FFFBE0002201217E4800F09F
:1012FC00C0FF002202217C4800F0BBFF0022042129
:10130C00794800F0B6FF00220821774800F0B1FFC1
:10131C0001221021744800F0ACFF012220217248F8
:10132C0000F0A7FF002240216F4800F0A2FFD7E099
:10133C00012201216C4800F09CFF002202216A4826
:10134C0000F097FF00220421674800F092FF012271
:10135C000821654800F08DFF01221021624800F041
:10136C0088FF00222021604800F083FF00224021EA
:10137C005D4800F07EFFB3E0002201215A4800F0E6
:10138C0078FF01220221584800F073FF002204214B
:10139C00554800F06EFF00220821534800F069FF09
:1013AC0001221021504800F064FF002220214E48F9
:1013BC0000F05FFF002240214B4800F05AFF8FE005
:1013CC0000220121484800F054FF01220221464826
:1013DC0000F04FFF00220421434800F04AFF002296
:1013EC000821414800F045FF002210213E4800F042
:1013FC0040FF002220213C4800F03BFF002240210E
:10140C00394800F036FF6BE000220121364800F02D
:10141C0030FF00220221344800F02BFF002204216F
:10142C00314800F026FF012208212F4800F021FF4F
:10143C00012210212C4800F01CFF012220212A48F7
:10144C0000F017FF01224021274800F012FF47E06F
:10145C0000220121244800F00CFF00220221224826
:10146C0000F007FF002204211F4800F002FF0022B9
:10147C0008211D4800F0FDFE002210211A4800F042
:10148C00F8FE00222021184800F0F3FE0022402133
:10149C00154800F0EEFE23E000220121124800F076
:1014AC00E8FE00220221104800F0E3FE0022042195
:1014BC000D4800F0DEFE002208210B4800F0D9FE9A
:1014CC0001221021084800F0D4FE002220210648F9
:1014DC0000F0CFFE00224021034800F0CAFE00BFFE
:1014EC0000BF0837BD4680BD000C014080B582B0FE
:1014FC0000AF78607B68032B6ED801A252F823F002
:10150C001D1500084F15000881150008B3150008BB
:10151C0001224FF48051334800F0ABFE00224FF40F
:10152C000051304800F0A5FE00224FF480412D48B8
:10153C0000F09FFE00224FF400412A4800F099FE73
:10154C004BE000224FF48051264800F092FE01221D
:10155C004FF40051234800F08CFE00224FF48041E0
:10156C00204800F086FE00224FF400411D4800F098
:10157C0080FE32E000224FF480511A4800F079FED0
:10158C0000224FF40051174800F073FE01224FF473
:10159C008041144800F06DFE00224FF400411148C8
:1015AC0000F067FE19E000224FF480510D4800F066
:1015BC0060FE00224FF400510A4800F05AFE00224F
:1015CC004FF48041074800F054FE01224FF40041D3
:1015DC00044800F04EFE00E000BF00BF0837BD46D7
:1015EC0080BD00BF0008014080B500AF00224FF461
:1015FC0080510B4800F03DFE00224FF4005108488A
:10160C0000F037FE00224FF48041054800F031FE17
:10161C0000224FF40041024800F02BFE00BF80BDB9
:10162C000008014080B582B000AF78607868FFF7A1
:10163C005DFF054A7B6852F823301846FFF7C8FD5A
:10164C0000BF0837BD4680BD7000002080B500AFDC
:10165C0000F00EFB00F026F800F060F800F0AAF89D
:10166C000D4801F063FA4FF47A71052000F024F96B
:10167C000A4B5B69012B08D14FF47A71052000F0FD
:10168C001BF90221064800F00CFEFEF7C9FEFFF71D
:10169C0065FBFFF745FAEBE7DC000020A800002013
:1016AC000008014080B590B000AF07F11803282264
:1016BC000021184601F0EAFD3B1D00221A605A6019
:1016CC009A60DA601A610223BB610123BB621023AA
:1016DC00FB6200237B6307F11803184600F0FAFD48
:1016EC000346002B01D000F0E1F80F237B600023B0
:1016FC00BB600023FB6000233B6100237B613B1D2F
:10170C000021184601F066F80346002B01D000F0CA
:10171C00CDF800BF4037BD4680BD000080B586B017
:10172C0000AF07F1080300221A605A609A60DA6071
:10173C003B4600221A605A601D4B4FF080421A60E3
:10174C001B4B41F63F725A60194B00229A60184BA2
:10175C000922DA60164B00221A61154B00229A619D
:10176C00134801F093F90346002B01D000F09EF8CA
:10177C004FF48053BB6007F1080319460C4801F085
:10178C0011FB0346002B01D000F090F800233B60C6
:10179C0000237B603B461946054801F0E9FC0346F3
:1017AC00002B01D000F082F800BF1837BD4680BD79
:1017BC00DC00002080B588B000AF07F110030022D8
:1017CC001A605A609A60DA602E4B9B692D4A43F07E
:1017DC00100393612B4B9B6903F01003FB60FB68B8
:1017EC00284B9B69274A43F004039361254B9B6963
:1017FC0003F00403BB60BB68224B9B69214A43F096
:10180C00080393611F4B9B6903F008037B607B68A3
:10181C0000224FF2F6311C4800F02BFD00227F21F4
:10182C001A4800F026FD4FF460433B6100237B61B6
:10183C000123BB6107F110031946154800F088FB22
:10184C004FF2F6333B6101237B610023BB61022322
:10185C00FB6107F1100319460B4800F079FB7F235D
:10186C003B6101237B610023BB610223FB6107F118
:10187C0010031946054800F06BFB00BF2037BD462E
:10188C0080BD00BF0010024000080140000C014068
:10189C000010014080B582B000AF786000F02CF8E9
:1018AC00FEF74EFC00BF0837BD4680BD80B400AFCC
:1018BC0072B600BFFEE7000080B483B000AF786062
:1018CC0039603B68094A82FB03129210DB17D21A6B
:1018DC0007497B6841F82320064A7B68002142F8BF
:1018EC00231000BF0C37BD4680BC70476766666628
:1018FC0080000020A800002080B483B000AF00233B
:10190C007B6016E00F4A7B6852F823305A1E0D4953
:10191C007B6841F823200B4A7B6852F82330002B5C
:10192C0004DC094A7B68012142F823107B680133EF
:10193C007B607B68092BE5DD00BF00BF0C37BD4623
:10194C0080BC704780000020A800002080B485B0C7
:10195C0000AF154B9B69144A43F001039361124B82
:10196C009B6903F00103BB60BB680F4BDB690E4A3C
:10197C0043F08053D3610C4BDB6903F080537B60E5
:10198C007B680A4B5B68FB60FB6823F0E063FB60E1
:10199C00FB6843F08063FB60044AFB68536000BF44
:1019AC001437BD4680BC7047001002400000014057
:1019BC0080B584B000AF78607B681B68B3F1804F52
:1019CC0013D10C4BDB690B4A43F00103D361094B78
:1019DC00DB6903F00103FB60FB68002200211C2083
:1019EC0000F07FFA1C2000F098FA00BF1037BD46BB
:1019FC0080BD00BF0010024080B400AFFEE780B491
:101A0C0000AFFEE780B400AFFEE780B400AFFEE7A6
:101A1C0080B400AFFEE780B400AF00BFBD4680BC11
:101A2C00704780B400AF00BFBD4680BC704780B427
:101A3C0000AF00BFBD4680BC704780B500AF00F062
:101A4C005DF900BF80BD000080B500AF024801F019
:101A5C00B9F800BF80BD00BFDC00002080B400AF2F
:101A6C0000BFBD4680BC704780B500AF012210217D
:101A7C00074800F0FEFB00222021054800F0F9FB8E
:101A8C0000224021024800F0F4FB00BF80BD00BFE3
:101A9C000008014080B500AF00221021074800F07B
:101AAC00E8FB00222021054800F0E3FB0122402145
:101ABC00024800F0DEFB00BF80BD00BF0008014003
:101ACC0080B500AF00221021074800F0D2FB0122A4
:101ADC002021054800F0CDFB00224021024800F0F7
:101AEC00C8FB00BF80BD00BF0008014080B500AF3F
:101AFC0001228021084800F0BCFB00224FF48071C9
:101B0C00054800F0B6FB00224FF40071024800F0CB
:101B1C00B0FB00BF80BD00BF0008014080B500AF26
:101B2C0000228021084800F0A4FB00224FF48071B1
:101B3C00054800F09EFB01224FF40071024800F0B2
:101B4C0098FB00BF80BD00BF0008014080B500AF0E
:101B5C0000228021084800F08CFB01224FF4807198
:101B6C00054800F086FB00224FF40071024800F09B
:101B7C0080FB00BF80BD00BF0008014080B500AFF6
:101B8C00002210210F4800F074FB002220210D4888
:101B9C0000F06FFB002240210A4800F06AFB002293
:101BAC008021084800F065FB00224FF48071054845
:101BBC0000F05FFB00224FF40071024800F059FB6B
:101BCC0000BF80BD0008014080B500AF1021044863
:101BDC0000F067FB8021024800F063FB00BF80BD72
:101BEC000008014080B500AF2021054800F059FBEA
:101BFC004FF48071024800F054FB00BF80BD00BF61
:101C0C000008014080B500AF4021054800F049FBB9
:101C1C004FF40071024800F044FB00BF80BD00BFD0
:101C2C0000080140FFF71AFF0B480C490C4A00232F
:101C3C0002E0D458C4500433C4188C42F9D3094A76
:101C4C00094C002301E013600432A242FBD301F0E3
:101C5C00F9FAFFF7FBFC7047000000203000002071
:101C6C00EC3200083000002028010020FEE70000C4
:101C7C0080B500AF084B1B68074A43F01003136094
:101C8C00032000F023F90F2000F008F8FFF75EFEA8
:101C9C000023184680BD00BF0020024080B582B0F2
:101CAC0000AF7860124B1A68124B1B7819464FF430
:101CBC007A73B3FBF1F3B2FBF3F3184600F03BF984
:101CCC000346002B01D001230EE07B680F2B0AD8B2
:101CDC00002279684FF0FF3000F003F9064A7B6868
:101CEC001360002300E0012318460837BD4680BD71
:101CFC00240000202C0000202800002080B400AF1D
:101D0C00054B1B781A46054B1B681344034A13609A
:101D1C0000BFBD4680BC70472C0000202401002071
:101D2C0080B400AF024B1B681846BD4680BC7047A0
:101D3C002401002080B485B000AF78607B6803F08C
:101D4C000703FB600C4BDB68BB60BA684FF6FF0304
:101D5C001340BB60FB681A02BB68134343F0BF63BC
:101D6C0043F40033BB60044ABB68D36000BF143734
:101D7C00BD4680BC704700BF00ED00E080B400AFF2
:101D8C00044BDB681B0A03F007031846BD4680BCF6
:101D9C00704700BF00ED00E080B483B000AF034695
:101DAC00FB7197F90730002B0BDBFB7903F01F025B
:101DBC00064997F907305B09012000FA02F241F855
:101DCC00232000BF0C37BD4680BC704700E100E00B
:101DDC0080B483B000AF03463960FB7197F90730CC
:101DEC00002B0ADB3B68DAB20C4997F90730120179
:101DFC00D2B20B4483F800230AE03B68DAB20849FC
:101E0C00FB7903F00F03043B1201D2B20B441A7698
:101E1C0000BF0C37BD4680BC704700BF00E100E03E
:101E2C0000ED00E080B489B000AFF860B9607A6072
:101E3C00FB6803F00703FB61FB69C3F10703042B89
:101E4C0028BF0423BB61FB690433062B02D9FB6951
:101E5C00033B00E000237B614FF0FF32BB6902FAC9
:101E6C0003F3DA43BB681A407B699A404FF0FF31A9
:101E7C007B6901FA03F3D9437B680B401343184683
:101E8C002437BD4680BC704780B582B000AF786007
:101E9C007B68013BB3F1807F01D301230FE00A4A39
:101EAC007B68013B53600F214FF0FF30FFF790FF31
:101EBC00054B00229A60044B07221A600023184637
:101ECC000837BD4680BD00BF10E000E080B582B091
:101EDC0000AF78607868FFF72DFF00BF0837BD466C
:101EEC0080BD80B586B000AF0346B9607A60FB73E5
:101EFC0000237B61FFF742FF78617A68B9687869E3
:101F0C00FFF790FF024697F90F3011461846FFF77E
:101F1C005FFF00BF1837BD4680BD80B582B000AFF3
:101F2C000346FB7197F907301846FFF735FF00BFE2
:101F3C000837BD4680BD80B582B000AF7860786848
:101F4C00FFF7A2FF034618460837BD4680BD0000C8
:101F5C0080B48BB000AF7860396000237B620023C3
:101F6C003B6248E101227B6A02FA03F3FB613B68A6
:101F7C001B68FA691340BB61BA69FB699A4240F06D
:101F8C0037813B685B68A34A93425ED0A14A934277
:101F9C0075D8A14A934258D09F4A93426FD89F4A12
:101FAC00934252D09D4A934269D89D4A93424CD059
:101FBC009B4A934263D89B4A934246D0994A934298
:101FCC005DD8122B2AD8122B59D801A252F823F023
:101FDC005720000831200008432000088520000805
:101FEC008B2000088B2000088B2000088B20000819
:101FFC008B2000088B2000088B2000088B20000809
:10200C008B2000088B2000088B2000088B200008F8
:10201C008B200008392000084D200008824A93428A
:10202C0013D02CE03B68DB683B6229E03B68DB6843
:10203C0004333B6224E03B68DB6808333B621FE0FF
:10204C003B68DB680C333B621AE03B689B68002BF7
:10205C0002D104233B6213E03B689B68012B05D142
:10206C0008233B627B68FA691A6109E008233B622A
:10207C007B68FA695A6103E000233B6200E000BF11
:10208C00BB69FF2B01D87B6801E07B6804337B6163
:10209C00BB69FF2B02D87B6A9B0002E07B6A083B82
:1020AC009B003B617B691A680F213B6901FA03F3C2
:1020BC00DB431A40396A3B6901FA03F31A437B6923
:1020CC001A603B685B6803F08053002B00F0908033
:1020DC00564B9B69554A43F001039361534B9B69E3
:1020EC0003F00103BB60BB68514A7B6A9B08023357
:1020FC0052F82330FB607B6A03F003039B000F2232
:10210C0002FA03F3DB43FA681340FB607B68494A2D
:10211C0093420DD07B68484A934207D07B68474A6C
:10212C00934201D1022304E0032302E0012300E0E7
:10213C0000237A6A02F0030292009340FA68134378
:10214C00FB603B497B6A9B080233FA6841F8232009
:10215C003B685B6803F48013002B06D0384B9A68FD
:10216C003749BB6913438B6006E0354B9A68BB69F2
:10217C00DB43334913408B603B685B6803F400130B
:10218C00002B06D02E4BDA682D49BB691343CB606C
:10219C0006E02B4BDA68BB69DB4329491340CB6063
:1021AC003B685B6803F40033002B06D0244B5A6861
:1021BC002349BB6913434B6006E0214B5A68BB694A
:1021CC00DB431F4913404B603B685B6803F480336F
:1021DC00002B06D01A4B1A681949BB6913430B60C4
:1021EC0006E0174B1A68BB69DB43154913400B60BB
:1021FC007B6A01337B623B681A687B6A22FA03F3C1
:10220C00002B7FF4AFAE00BF00BF2C37BD4680BCA7
:10221C00704700BF00003210000031100000221087
:10222C0000002110000012100000111000100240DC
:10223C000000014000080140000C0140001001406A
:10224C000004014080B485B000AF78600B467B8001
:10225C007B689A687B881340002B02D00123FB73A8
:10226C0001E00023FB73FB7B18461437BD4680BC92
:10227C00704780B483B000AF78600B467B80134608
:10228C007B707B78002B03D07A887B681A6103E023
:10229C007B881A047B681A6100BF0C37BD4680BC72
:1022AC00704780B485B000AF78600B467B807B684C
:1022BC00DB68FB607A88FB6813401A04FB68D9431F
:1022CC007B880B401A437B681A6100BF1437BD46EC
:1022DC0080BC704780B586B000AF78607B68002BFF
:1022EC0001D101236CE27B681B6803F00103002B16
:1022FC0000F08780924B5B6803F00C03042B0CD02E
:10230C008F4B5B6803F00C03082B12D18C4B5B6872
:10231C0003F48033B3F5803F0BD1894B1B6803F476
:10232C000033002B6CD07B685B68002B68D10123D9
:10233C0046E27B685B68B3F5803F06D1804B1B6837
:10234C007F4A43F4803313602EE07B685B68002B7C
:10235C000CD17B4B1B687A4A23F480331360784B87
:10236C001B68774A23F4802313601DE07B685B684D
:10237C00B3F5A02F0CD1724B1B68714A43F4802328
:10238C0013606F4B1B686E4A43F4803313600BE091
:10239C006B4B1B686A4A23F480331360684B1B68D1
:1023AC00674A23F4802313607B685B68002B13D08F
:1023BC00FFF7B6FC386108E0FFF7B2FC02463B6958
:1023CC00D31A642B01D90323FAE15D4B1B6803F488
:1023DC000033002BF0D014E0FFF7A2FC386108E0CA
:1023EC00FFF79EFC02463B69D31A642B01D90323E9
:1023FC00E6E1534B1B6803F40033002BF0D100E0F3
:10240C0000BF7B681B6803F00203002B63D04C4BAE
:10241C005B6803F00C03002B0BD0494B5B6803F09B
:10242C000C03082B1CD1464B5B6803F48033002B48
:10243C0016D1434B1B6803F00203002B05D07B68BD
:10244C001B69012B01D00123BAE13D4B1B6823F022
:10245C00F8027B685B69DB00394913430B603AE097
:10246C007B681B69002B20D0364B01221A60FFF7CA
:10247C0057FC386108E0FFF753FC02463B69D31A5E
:10248C00022B01D903239BE12D4B1B6803F00203A4
:10249C00002BF0D02A4B1B6823F0F8027B685B6999
:1024AC00DB00274913430B6015E0264B00221A6012
:1024BC00FFF736FC386108E0FFF732FC02463B6957
:1024CC00D31A022B01D903237AE11D4B1B6803F0AD
:1024DC000203002BF0D17B681B6803F00803002B70
:1024EC003AD07B689B69002B19D0174B01221A60DC
:1024FC00FFF716FC386108E0FFF712FC02463B6957
:10250C00D31A022B01D903235AE10D4B5B6A03F05A
:10251C000203002BF0D0012000F09AFA1CE00A4BC9
:10252C0000221A60FFF7FCFB38610FE0FFF7F8FBA5
:10253C0002463B69D31A022B08D9032340E100BFA2
:10254C000010024000004242800442429E4B5B6AF3
:10255C0003F00203002BE9D17B681B6803F0040332
:10256C00002B00F0A6800023FB75974BDB6903F072
:10257C008053002B0DD1944BDB69934A43F080536D
:10258C00D361914BDB6903F08053BB60BB680123C3
:10259C00FB758E4B1B6803F48073002B18D18B4B8F
:1025AC001B688A4A43F480731360FFF7B9FB3861E8
:1025BC0008E0FFF7B5FB02463B69D31A642B01D93F
:1025CC000323FDE0814B1B6803F48073002BF0D0D8
:1025DC007B68DB68012B06D17B4B1B6A7A4A43F084
:1025EC00010313622DE07B68DB68002B0CD1764B6A
:1025FC001B6A754A23F001031362734B1B6A724A00
:10260C0023F0040313621CE07B68DB68052B0CD100
:10261C006D4B1B6A6C4A43F0040313626A4B1B6AD2
:10262C00694A43F0010313620BE0674B1B6A664A6D
:10263C0023F001031362644B1B6A634A23F0040307
:10264C0013627B68DB68002B15D0FFF769FB3861E0
:10265C000AE0FFF765FB02463B69D31A41F2883268
:10266C00934201D90323ABE0574B1B6A03F00203DF
:10267C00002BEED014E0FFF753FB38610AE0FFF7B4
:10268C004FFB02463B69D31A41F28832934201D97F
:10269C00032395E04C4B1B6A03F00203002BEED195
:1026AC00FB7D012B05D1484BDB69474A23F0805356
:1026BC00D3617B68DB69002B00F08180424B5B6847
:1026CC0003F00C03082B61D07B68DB69022B46D12D
:1026DC003F4B00221A60FFF723FB386108E0FFF73D
:1026EC001FFB02463B69D31A022B01D9032367E077
:1026FC00354B1B6803F00073002BF0D17B681B6A11
:10270C00B3F5803F08D1304B5B6823F400327B6813
:10271C009B682D4913434B602B4B5B6823F474125D
:10272C007B68196A7B685B6A0B43274913434B60D0
:10273C00274B01221A60FFF7F3FA386108E0FFF724
:10274C00EFFA02463B69D31A022B01D9032337E077
:10275C001D4B1B6803F00073002BF0D02FE01C4BBB
:10276C0000221A60FFF7DCFA386108E0FFF7D8FAAC
:10277C0002463B69D31A022B01D9032320E0124BEA
:10278C001B6803F00073002BF0D118E07B68DB6949
:10279C00012B01D1012313E00B4B5B68FB60FB6841
:1027AC0003F480327B681B6A9A4206D1FB6803F4FF
:1027BC0070127B685B6A9A4201D0012300E000230F
:1027CC0018461837BD4680BD00100240007000400E
:1027DC006000424280B584B000AF786039607B689D
:1027EC00002B01D10123D0E06A4B1B6803F00703D7
:1027FC003A689A4210D9674B1B6823F00702654967
:10280C003B6813430B60634B1B6803F007033A6888
:10281C009A4201D00123B8E07B681B6803F00203E5
:10282C00002B20D07B681B6803F00403002B05D021
:10283C00594B5B68584A43F4E06353607B681B68F0
:10284C0003F00803002B05D0534B5B68524A43F44A
:10285C0060535360504B5B6823F0F0027B689B68BD
:10286C004D4913434B607B681B6803F00103002B3D
:10287C0040D07B685B68012B07D1474B1B6803F486
:10288C000033002B15D101237FE07B685B68022BA2
:10289C0007D1414B1B6803F00073002B09D10123B6
:1028AC0073E03D4B1B6803F00203002B01D10123A5
:1028BC006BE0394B5B6823F003027B685B6836493D
:1028CC0013434B60FFF72CFAF8600AE0FFF728FA85
:1028DC000246FB68D31A41F28832934201D9032392
:1028EC0053E02D4B5B6803F00C027B685B689B002C
:1028FC009A42EBD1274B1B6803F007033A689A42C4
:10290C0010D2244B1B6823F0070222493B68134367
:10291C000B60204B1B6803F007033A689A4201D006
:10292C00012332E07B681B6803F00403002B08D002
:10293C00194B5B6823F4E0627B68DB681649134330
:10294C004B607B681B6803F00803002B09D0124B0B
:10295C005B6823F460527B681B69DB000E491343F0
:10296C004B6000F021F802460B4B5B681B0903F02F
:10297C000F030A49CB5C22FA03F3094A1360094B93
:10298C001B681846FFF78AF9002318461037BD4616
:10299C0080BD00BF0020024000100240C032000881
:1029AC00240000202800002080B487B000AF002352
:1029BC00FB600023BB6000237B6100237B60002352
:1029CC003B611E4B5B68FB60FB6803F00C03042B44
:1029DC0002D0082B03D027E0194B3B6127E0FB68A2
:1029EC009B0C03F00F03174AD35C7B60FB6803F46A
:1029FC008033002B10D0114B5B685B0C03F0010390
:102A0C00114AD35CBB607B680D4A02FB03F2BB68C6
:102A1C00B2FBF3F37B6104E07B680C4A02FB03F32B
:102A2C007B617B693B6102E0054B3B6100BF3B690D
:102A3C0018461C37BD4680BC704700BF00100240D2
:102A4C0000127A00D0320008E032000800093D0084
:102A5C0080B485B000AF78600A4B1B680A4AA2FBB1
:102A6C0003235B0A7A6802FB03F3FB6000BFFB687D
:102A7C005A1EFA60002BF9D100BF00BF1437BD46B7
:102A8C0080BC704724000020D34D621080B582B00A
:102A9C0000AF78607B68002B01D1012341E07B689B
:102AAC0093F83D30DBB2002B06D17B68002283F813
:102ABC003C207868FEF77CFF7B68022283F83D207F
:102ACC007B681A687B6804331946104600F056FA86
:102ADC007B68012283F846207B68012283F83E2024
:102AEC007B68012283F83F207B68012283F8402019
:102AFC007B68012283F841207B68012283F8422005
:102B0C007B68012283F843207B68012283F84420F0
:102B1C007B68012283F845207B68012283F83D20E5
:102B2C00002318460837BD4680BD000080B485B030
:102B3C0000AF78607B6893F83D30DBB2012B01D09D
:102B4C00012335E07B68022283F83D207B681B68FB
:102B5C00DA687B681B6842F00102DA607B681B68EC
:102B6C00164A934209D07B681B68B3F1804F04D09E
:102B7C007B681B68124A934211D17B681B689B6867
:102B8C0003F00703FB60FB68062B10D07B681B6807
:102B9C001A687B681B6842F001021A6007E07B68C8
:102BAC001B681A687B681B6842F001021A600023DC
:102BBC0018461437BD4680BC704700BF002C01403E
:102BCC000004004080B584B000AF78607B681B685F
:102BDC00DB68FB607B681B681B69BB60BB6803F030
:102BEC000203002B20D0FB6803F00203002B1BD048
:102BFC007B681B686FF002021A617B6801221A77EE
:102C0C007B681B689B6903F00303002B03D0786877
:102C1C0000F098F905E0786800F08BF9786800F01E
:102C2C009AF97B6800221A77BB6803F00403002B27
:102C3C0020D0FB6803F00403002B1BD07B681B68BF
:102C4C006FF004021A617B6802221A777B681B689A
:102C5C009B6903F44073002B03D0786800F072F981
:102C6C0005E0786800F065F9786800F074F97B6825
:102C7C0000221A77BB6803F00803002B20D0FB68F6
:102C8C0003F00803002B1BD07B681B686FF0080255
:102C9C001A617B6804221A777B681B68DB6903F076
:102CAC000303002B03D0786800F04CF905E078683A
:102CBC0000F03FF9786800F04EF97B6800221A7733
:102CCC00BB6803F01003002B20D0FB6803F010034B
:102CDC00002B1BD07B681B686FF010021A617B689D
:102CEC0008221A777B681B68DB6903F44073002B9E
:102CFC0003D0786800F026F905E0786800F019F93F
:102D0C00786800F028F97B6800221A77BB6803F01A
:102D1C000103002B0CD0FB6803F00103002B07D040
:102D2C007B681B686FF001021A617868FEF7B2FDD0
:102D3C00BB6803F08003002B0CD0FB6803F080030E
:102D4C00002B07D07B681B686FF080021A617868D3
:102D5C0000F06FFABB6803F04003002B0CD0FB684B
:102D6C0003F04003002B07D07B681B686FF0400218
:102D7C001A61786800F0F8F8BB6803F02003002BA8
:102D8C000CD0FB6803F02003002B07D07B681B687A
:102D9C006FF020021A61786800F042FA00BF103719
:102DAC00BD4680BD80B584B000AF7860396000232B
:102DBC00FB737B6893F83C30012B01D10223B4E008
:102DCC007B68012283F83C207B68022283F83D203B
:102DDC007B681B689B68BB60BB6823F07703BB6098
:102DEC00BB6823F47F43BB607B681B68BA689A603E
:102DFC003B681B68B3F5005F3ED0B3F5005F00F293
:102E0C008780B3F5805F00F08680B3F5805F7FD854
:102E1C00702B1AD0702B7BD8602B50D0602B77D8AE
:102E2C00502B3CD0502B73D8402B58D0402B6FD804
:102E3C00302B64D0302B6BD8202B60D0202B67D854
:102E4C00002B5CD0102B5AD062E07B6818683B6872
:102E5C0099683B685A683B68DB6800F06AF97B68E4
:102E6C001B689B68BB60BB6843F07703BB607B68E7
:102E7C001B68BA689A604FE07B6818683B68996871
:102E8C003B685A683B68DB6800F053F97B681B6849
:102E9C009A687B681B6842F480429A603CE07B68CD
:102EAC0018683B6859683B68DB681A4600F0CAF83A
:102EBC007B681B685021184600F021F92CE07B68D8
:102ECC0018683B6859683B68DB681A4600F0E8F8FC
:102EDC007B681B686021184600F011F91CE07B68C8
:102EEC0018683B6859683B68DB681A4600F0AAF81A
:102EFC007B681B684021184600F001F90CE07B68E8
:102F0C001A683B681B681946104600F0F8F803E095
:102F1C000123FB7300E000BF7B68012283F83D2096
:102F2C007B68002283F83C20FB7B18461037BD469B
:102F3C0080BD80B483B000AF786000BF0C37BD4655
:102F4C0080BC704780B483B000AF786000BF0C3792
:102F5C00BD4680BC704780B483B000AF786000BFC2
:102F6C000C37BD4680BC704780B483B000AF78602E
:102F7C0000BF0C37BD4680BC7047000080B485B0E4
:102F8C0000AF786039607B681B68FB607B682B4AFC
:102F9C00934207D07B68B3F1804F03D07B68284AFB
:102FAC00934208D1FB6823F07003FB603B685B68BD
:102FBC00FA681343FB607B68204A934207D07B6816
:102FCC00B3F1804F03D07B681D4A934208D1FB6854
:102FDC0023F44073FB603B68DB68FA681343FB60C7
:102FEC00FB6823F080023B685B691343FB607B68E2
:102FFC00FA681A603B689A687B68DA623B681A6800
:10300C007B689A627B680D4A934203D13B681A69CC
:10301C007B681A637B6801225A617B681B6903F029
:10302C000103002B05D07B681B6923F001027B6830
:10303C001A6100BF1437BD4680BC7047002C01409C
:10304C000004004080B487B000AFF860B9607A60CB
:10305C00FB681B6A7B61FB681B6A23F00102FB683F
:10306C001A62FB689B693B613B6923F0F0033B618F
:10307C007B681B013A6913433B617B6923F00A03AC
:10308C007B617A69BB6813437B61FB683A699A611F
:10309C00FB687A691A6200BF1C37BD4680BC70475A
:1030AC0080B487B000AFF860B9607A60FB681B6AC7
:1030BC007B61FB681B6A23F01002FB681A62FB68D9
:1030CC009B693B613B6923F470433B617B681B0349
:1030DC003A6913433B617B6923F0A0037B61BB68B6
:1030EC001B017A6913437B61FB683A699A61FB683F
:1030FC007A691A6200BF1C37BD4680BC704780B429
:10310C0085B000AF786039607B689B68FB60FB68BA
:10311C0023F07003FB603A68FB68134343F007032A
:10312C00FB607B68FA689A6000BF1437BD4680BCB0
:10313C00704780B487B000AFF860B9607A603B60CC
:10314C00FB689B687B617B6923F47F437B613B68F5
:10315C001A027B681A43BB6813437A6913437B6179
:10316C00FB687A699A6000BF1C37BD4680BC70470B
:10317C0080B485B000AF786039607B6893F83C30E0
:10318C00012B01D1022341E07B68012283F83C2012
:10319C007B68022283F83D207B681B685B68FB60C0
:1031AC007B681B689B68BB60FB6823F07003FB604B
:1031BC003B681B68FA681343FB607B681B68FA6802
:1031CC005A607B681B68144A934209D07B681B6861
:1031DC00B3F1804F04D07B681B68104A93420CD12A
:1031EC00BB6823F08003BB603B685B68BA68134321
:1031FC00BB607B681B68BA689A607B68012283F8A5
:10320C003D207B68002283F83C20002318461437AD
:10321C00BD4680BC704700BF002C0140000400403C
:10322C0080B483B000AF786000BF0C37BD4680BC63
:10323C00704780B483B000AF786000BF0C37BD46D8
:10324C0080BC704770B500260C4D0D4C641BA4104F
:10325C00A64209D100F022F800260A4D0A4C641B44
:10326C00A410A64205D170BD55F8043B9847013611
:10327C00EEE755F8043B98470136F2E7E4320008D4
:10328C00E4320008E4320008E83200080346024445
:10329C00934200D1704703F8011BF9E7F8B500BF62
:1032AC00F8BC08BC9E467047F8B500BFF8BC08BC1B
:0432BC009E46704773
:1032C00000000000000000000102030406070809D6
:1032D00002030405060708090A0B0C0D0E0F101057
:0432E00001020000E7
:0432E40031010008AC
:0432E8000D010008CC
:1032EC00C8000000C8000000C80000000500000075
:1032FC0002000000030000000200000003000000B8
:10330C000400000000127A00100000000100000010
:0400000508001C31A2
:00000001FF
