:020000040800F2
:1000000000280020151C0008E9190008EF19000855
:10001000F5190008FB190008011A0008000000008B
:10002000000000000000000000000000071A0008A7
:10003000131A0008000000001F1A00082B1A0008FD
:100040005D1C00085D1C00085D1C00085D1C0008AC
:100050005D1C00085D1C00085D1C00085D1C00089C
:100060005D1C00085D1C00085D1C00085D1C00088C
:100070005D1C00085D1C00085D1C00085D1C00087C
:100080005D1C00085D1C00085D1C00085D1C00086C
:100090005D1C00085D1C00085D1C00085D1C00085C
:1000A0005D1C00085D1C00085D1C00085D1C00084C
:1000B000391A00085D1C0008000000005D1C0008E3
:1000C0005D1C000800000000000000005D1C00082E
:1000D000000000005D1C00085D1C0008000000001E
:1000E0005D1C00085D1C00085D1C0008000000008D
:1000F0000000000000000000000000000000000000
:0C01000000000000000000005FF808F1A3
:10010C0010B5054C237833B9044B13B10448AFF345
:10011C0000800123237010BD30000020000000007F
:10012C008C32000808B5034B1BB103490348AFF3ED
:10013C00008008BD00000000340000208C32000854
:10014C0080B582B000AF00237B6011E07B68002B90
:10015C0001D100F015F87B68012B01D100F080F87B
:10016C007B68022B01D100F0EBF87B6801337B60DC
:10017C007B68022BEADD00BF00BF0837BD4680BD9F
:10018C0080B500AF324B1B68042B5AD801A252F831
:10019C0023F000BFB5010008CD010008ED010008F7
:1001AC004F020008190200084FF40051294802F0D0
:1001BC003BF80346012B46D0254B01221A6045E043
:1001CC004FF40051234802F02FF80346012B03D1C2
:1001DC001F4B00221A6039E01D4B02221A6035E0D9
:1001EC004FF400511B4802F01FF80346012B03D1BA
:1001FC00174B00221A6029E0174B01221A60144B8E
:10020C0004221A60154BC8221A601FE0134B1B689E
:10021C00013B124A1360114B1B68002B05D10F4B8D
:10022C00C8221A600C4B01221A604FF40051094885
:10023C0001F0FAFF0346012B07D1054B00221A608F
:10024C0003E000BF02E000BF00E000BF80BD00BFC4
:10025C0058000020001001404C000020000000203D
:10026C0080B500AF324B5B68042B5AD801A252F810
:10027C0023F000BF95020008AD020008CD02000873
:10028C002F030008F90200084FF48041294801F0BF
:10029C00CBFF0346012B46D0254B01225A6045E08B
:1002AC004FF48041234801F0BFFF0346012B03D1DB
:1002BC001F4B00225A6039E01D4B02225A6035E078
:1002CC004FF480411B4801F0AFFF0346012B03D1D3
:1002DC00174B00225A6029E0174B01225A60144B2D
:1002EC0004225A60154BC8225A601FE0134B5B68FE
:1002FC00013B124A5360114B5B68002B05D10F4B2D
:10030C00C8225A600C4B01225A604FF480410948B4
:10031C0001F08AFF0346012B07D1054B00225A60DE
:10032C0003E000BF02E000BF00E000BF80BD00BFE3
:10033C0058000020001001404C000020000000205C
:10034C0080B500AF324B9B68042B5AD801A252F8EF
:10035C0023F000BF750300088D030008AD030008EF
:10036C000F040008D90300084FF40041294801F09C
:10037C005BFF0346012B46D0254B01229A6045E0DA
:10038C004FF40041234801F04FFF0346012B03D1EA
:10039C001F4B00229A6039E01D4B02229A6035E017
:1003AC004FF400411B4801F03FFF0346012B03D1E2
:1003BC00174B00229A6029E0174B01229A60144BCC
:1003CC0004229A60154BC8229A601FE0134B9B685D
:1003DC00013B124A9360114B9B68002B05D10F4BCC
:1003EC00C8229A600C4B01229A604FF400410948D4
:1003FC0001F01AFF0346012B07D1054B00229A602E
:10040C0003E000BF02E000BF00E000BF80BD00BF02
:10041C0058000020001001404C000020000000207B
:10042C0080B500AF8F4B1B68042B00F2AB8301A28D
:10043C0052F823F055040008C7040008A50600086C
:10044C0041080008190A0008874B1A68874B1B687B
:10045C001A44874B1B689A4206D0854B1A68834B0B
:10046C001B68D31A804A1360814B1B68013B814A7D
:10047C0013607D4B1B68013B7F4A13607B4B1B68F1
:10048C00013B7E4A1360784B1B684FF47A7202FB77
:10049C0003F31946012001F001FA4FF47A7102209E
:1004AC0001F0FCF9FA21032001F0F8F9744B012258
:1004BC001A606C4B01221A606DE3714B1B68012BA7
:1004CC0038D101F0C3FA01F01BFB6A4B1B686D4A73
:1004DC0082FB03129210DB17D31A6B4A1360654B25
:1004EC001968684B83FB01239A10CB17D21A134659
:1004FC009B0013445B00CA1A634B5A605E4B1B682B
:10050C00604A82FB03129210DB17D31A5E4A936087
:10051C00594B19685B4B83FB01239A10CB17D21AEA
:10052C0013469B0013445B00CA1A574BDA60544BBA
:10053C0000221A60554B5B68012B0FD1494B0222EC
:10054C001A604F4B01221A60484B1B684FF47A72A9
:10055C0002FB03F31946012001F0A0F94C4B1B6878
:10056C00042B02D14A4B00221A60484BDB68012B4A
:10057C000BD1474B1B685A1C45490A60184601F0C1
:10058C0043F8FA21032001F089F9404B9B68012BB9
:10059C0026D13D4BDB68013B3B4AD3603A4BDB68D1
:1005AC00002B07DA384B0922DA60374B9B68013B8A
:1005BC00354A9360344B5B68013B334A5360324B92
:1005CC005B68002B07DA304B09225A602E4B1B68F4
:1005DC00013B2D4A13604FF47A71022001F05EF951
:1005EC002C4B1B68012B15D12A4B00221A60244B73
:1005FC0001221A6000F0EAFF01F0B2FAFA2103209E
:10060C0001F04CF94FF4FA71042001F047F9154B45
:10061C0005221A601F4B5B68012B0CD1184B012271
:10062C001A601C4B00225A6000F0D0FF01F098FABF
:10063C000C4B08221A60174B9B68012B40F0A482CC
:10064C000F4B01221A60134B00229A6000F0BEFF80
:10065C0001F086FA0A4B01221A60024B09221A6039
:10066C0092E200BF64000020140000201000002063
:10067C000C000020D8000020D4000020D000002066
:10068C006C0000206766666670000020A8000020E1
:10069C00680000204C0000205D4B1B68012B1DD115
:1006AC0001F046FA5B4B1B685B4A82FB031292100B
:1006BC00DB17D31A594A9360564B1968564B83FB78
:1006CC0001239A10CB17D21A13469B0013445B00DC
:1006DC00CA1A524BDA604E4B00221A60504B5B68C0
:1006EC00012B0FD14F4B03221A60494B01221A6088
:1006FC004D4B1B684FF47A7202FB03F31946012031
:10070C0001F0CCF8494B1B68042B02D1474B00225B
:10071C001A60434BDB68012B0BD1444B1B685A1CF2
:10072C0042490A60184600F06FFFFA21032001F0DD
:10073C00B5F83B4B9B68012B26D1384BDB68013B52
:10074C00364AD360354BDB68002B07DA334B092272
:10075C00DA60324B9B68013B304A93602F4B5B68ED
:10076C00013B2E4A53602D4B5B68002B07DA2B4B59
:10077C0009225A60294B1B68013B284A13604FF42D
:10078C007A71022001F08AF8294B1B68012B15D1D4
:10079C00274B00221A601E4B01221A6000F016FF34
:1007AC0001F0DEF9FA21032001F078F84FF4FA7128
:1007BC00042001F073F81B4B05221A601C4B5B687C
:1007CC00012B0FD1124B01221A60194B00225A60D7
:1007DC0000F0FCFE01F0C4F90D4B01221A60114B24
:1007EC0008221A60124B9B68012B40F0CF81084BFA
:1007FC0001221A600E4B00229A6000F0E7FE01F015
:10080C00AFF9034B01221A60064B09221A60BDE1B5
:10081C006C000020D0000020676666667000002027
:10082C00A8000020640000201400002068000020B4
:10083C004C0000206B4B1B68012B38D101F048F9A0
:10084C0001F01AF9684B1B68684A82FB031292107C
:10085C00DB17D31A664A9360634B1968634B83FBAF
:10086C0001239A10CB17D21A13469B0013445B003A
:10087C00CA1A5F4BDA605F4B1B685C4A82FB03123F
:10088C009210DB17D31A5A4A13605A4B1968574BFC
:10089C0083FB01239A10CB17D21A13469B001344E7
:1008AC005B00CA1A524B5A604E4B00221A60524BD4
:1008BC005B68012B0FD1514B04221A60494B01226A
:1008CC001A604F4B1B684FF47A7202FB03F3194604
:1008DC00012000F0E3FF4B4B1B68042B02D1494B6A
:1008EC0000221A60444BDB68012B0BD1454B1B6873
:1008FC005A1C44490A60184600F086FEFA2103206F
:10090C0000F0CCFF3C4B9B68012B26D1384BDB68AD
:10091C00013B374AD360364BDB68002B07DA344B8C
:10092C000922DA60324B9B68013B314A9360304BB1
:10093C005B68013B2E4A53602D4B5B68002B07DA3A
:10094C002B4B09225A602A4B1B68013B284A136027
:10095C004FF47A71022000F0A1FF2B4B1B68012B86
:10096C0015D1294B00221A601E4B01221A6000F08F
:10097C002DFE01F0F5F8FA21032000F08FFF4FF463
:10098C00FA71042000F08AFF1C4B05221A601E4BE2
:10099C005B68012B0FD1134B01221A601A4B0022FA
:1009AC005A6000F013FE01F0DBF80E4B01221A60C6
:1009BC00124B08221A60144B9B68012B40F0E88004
:1009CC00084B01221A60104B00229A6000F0FEFDC9
:1009DC0001F0C6F8034B01221A60084B09221A6079
:1009EC00D6E000BF6C000020D80000206766666669
:1009FC0070000020D4000020A8000020640000201B
:100A0C0010000020680000204C000020634B1B6885
:100A1C00012B1DD101F046F8614B1B68614A82FB2A
:100A2C0003129210DB17D31A5F4A13605C4B1968E0
:100A3C005C4B83FB01239A10CB17D21A13469B00F5
:100A4C0013445B00CA1A584B5A60544B00221A606C
:100A5C00564B5B68012B0FD1554B01221A604F4B43
:100A6C0001221A60534B1B684FF47A7202FB03F39A
:100A7C001946012000F012FF4F4B1B68042B02D1CA
:100A8C004D4B00221A60494BDB68012B0BD14A4BB2
:100A9C001B685A1C48490A60184600F0B5FDFA213B
:100AAC00032000F0FBFE414B9B68012B26D13E4BF3
:100ABC00DB68013B3C4AD3603B4BDB68002B07DA1D
:100ACC00394B0922DA60384B9B68013B364A9360FC
:100ADC00354B5B68013B344A5360334B5B68002BEE
:100AEC0007DA314B09225A602F4B1B68013B2E4A07
:100AFC0013604FF47A71022000F0D0FE2F4B1B686C
:100B0C00012B15D12D4B00221A60244B01221A60A7
:100B1C0000F05CFD01F024F8FA21032000F0BEFE89
:100B2C004FF4FA71042000F0B9FE214B05221A6033
:100B3C00224B5B68012B10D1184B01221A601F4B02
:100B4C0000225A6000F042FD01F00AF8FA2103205D
:100B5C0000F0A4FE164B08221A60184B9B68012B60
:100B6C0018D10E4B01221A60144B00229A6000F02F
:100B7C002DFD00F0F5FF094B01221A600C4B0922E8
:100B8C001A6007E000BF06E000BF04E000BF02E00F
:100B9C0000BF00E000BF00BF80BD00BF6C000020A4
:100BAC00D00000206766666670000020A800002058
:100BBC006400002014000020680000204C0000207D
:100BCC0080B500AF574B1B68082B02D0092B52D0B5
:100BDC00A6E0554B1B68012B10D1534B00221A6019
:100BEC00524B00229A60514B9B68504A13604F4BFA
:100BFC000522DA604D4BDB684C4A53604C4B1B684A
:100C0C00042B02D14A4B00221A604A4BDB68012BA1
:100C1C000BD1474B1B685A1C45490A60184600F01B
:100C2C00F3FCFA21032000F039FE00F00FFF00F076
:100C3C0067FF414B5B68012B0ED104213F4801F04B
:100C4C0022FB394B01221A603B4B00225A6000F008
:100C5C0087FF344B09221A60374B9B68012B5CD100
:100C6C000421364801F00FFB334B00229A602D4BC8
:100C7C0000221A6051E02C4B1B68012B10D12A4B1F
:100C8C0000221A60294B00229A60284B9B68274A45
:100C9C001360264B0622DA60244BDB68234A536030
:100CAC00234B1B68042B02D1214B00221A60214BD1
:100CBC00DB68012B0BD11E4B1B685A1C1C490A60AC
:100CCC00184600F0A1FCFA21032000F0E7FD00F02B
:100CDC00FFFE00F0D1FE184B5B68012B0ED10421F6
:100CEC00164801F0D0FA104B01221A60124B002268
:100CFC005A6000F035FF0B4B08221A600E4B9B68B4
:100D0C00012B0CD104210D4801F0BDFA0A4B002235
:100D1C009A60044B00221A6001E000BF00E000BFA3
:100D2C0000BF80BD640000206C000020700000201B
:100D3C0068000020A80000204C00002000080140A2
:100D4C0080B500AF644B1B68042B02D1624B0022B0
:100D5C001A60624BDB68012B0BD15F4B1B685A1C72
:100D6C005D490A60184600F04FFCFA21032000F0A0
:100D7C0095FD5B4B1B68072B00F06681072B00F37E
:100D8C00FA81052B03D0062B00F0BA80F3E1554B0A
:100D9C001B68012B22D1544B00229A60534B1B68C9
:100DAC00514AD360524B1B68524A82FB0312921079
:100DBC00DB17D31A4C4A13604D4B19684D4B83FB10
:100DCC0001239A10CB17D21A13469B0013445B00D5
:100DDC00CA1A454B5A60434B00221A603F4B1B69A1
:100DEC00012B06D14FF4FA71042000F057FD00F0EE
:100DFC00DDFE414B5B68012B0BD13F4B00225A604F
:100E0C0004213E4801F03FFA374B5B680133364A08
:100E1C005360354B5B68092B07DD334B1B68013383
:100E2C00314A1360304B00225A602F4B1A6813461C
:100E3C009B0013445B001A462B4B5B681344632BDB
:100E4C0005DD294B09221A60274B09225A602A4BCF
:100E5C009B68012B12D1284B00229A60224B1A68F6
:100E6C0013469B0013445B001A461F4B5B681344EC
:100E7C001F4A13600421214801F005FA1C4B1B6822
:100E8C00632B08DD1A4B63221A60174B09221A6078
:100E9C00154B09225A60184B1B68012B40F06D81D1
:100EAC000421164801F0EFF9134B00221A6000F0F0
:100EBC008DFB00F055FEFA21032000F0EFFC4FF4FF
:100ECC00FA71042000F0EAFC064B01221A60044B74
:100EDC0006221A6051E100BF68000020A800002023
:100EEC00640000206C00002070000020180000201E
:100EFC000C000020676666664C000020000801406C
:100F0C00A14B1B68012B22D1A04B00229A60A04B55
:100F1C001B689E4AD3609F4B1B689F4A82FB03123F
:100F2C009210DB17D31A994A13609A4B19689A4B93
:100F3C0083FB01239A10CB17D21A13469B00134440
:100F4C005B00CA1A914B5A608F4B00221A60934B6C
:100F5C001B69012B06D14FF4FA71042000F09EFCA2
:100F6C0000F032FE8E4B5B68012B0BD18C4B0022B8
:100F7C005A6004218B4801F086F9844B5B6801337D
:100F8C00824A5360814B5B68092B07DD7F4B1B68E2
:100F9C0001337E4A13607D4B00225A607B4B1A68EA
:100FAC0013469B0013445B001A46784B5B68134452
:100FBC00632B05DD754B09221A60744B09225A60AC
:100FCC00774B9B68012B12D10421764801F05BF919
:100FDC00734B00229A606D4B1A6813469B001344A6
:100FEC005B001A46694B5B6813446A4A1360694B91
:100FFC001B68632B08DD674B63221A60634B092265
:10100C001A60624B09225A60654B1B68012B40F039
:10101C00B6800421634801F036F9614B00221A6056
:10102C0000F0D4FA00F09CFDFA21032000F036FC0D
:10103C004FF4FA71042000F031FC534B01221A607A
:10104C00594B07221A609AE04F4B1B68012B22D197
:10105C004E4B00229A60554B1B684C4AD360544B44
:10106C001B684D4A82FB03129210DB17D31A474AB6
:10107C0013604F4B1968484B83FB01239A10CB1715
:10108C00D21A13469B0013445B00CA1A3F4B5A609A
:10109C003D4B00221A60414B1B69012B06D14FF4CA
:1010AC00FA71042000F0FAFB00F09EFD3C4B5B68EB
:1010BC00012B0BD13A4B00225A600421394801F024
:1010CC00E2F8324B5B680133304A53602F4B5B685C
:1010DC00092B07DD2D4B1B6801332C4A13602B4B5E
:1010EC0000225A60294B1A6813469B0013445B007C
:1010FC001A46264B5B681344632B05DD234B0922F0
:10110C001A60224B09225A60254B9B68012B12D185
:10111C000421244801F0B7F8214B00229A601B4BA4
:10112C001A6813469B0013445B001A46174B5B6806
:10113C0013441F4A13601E4B1B68632B08DD1C4BAA
:10114C0063221A60114B09221A60104B09225A6053
:10115C00134B1B68012B14D10421124801F093F896
:10116C000F4B00221A6000F031FA00F0F9FC0E4B24
:10117C0000221A6005E000BF04E000BF02E000BFDF
:10118C0000E000BF00BF80BD6C000020700000209C
:10119C001C0000201000002067666666A800002076
:1011AC004C000020000801406400002020000020BA
:1011BC001400002080B582B000AF78607B68092BEA
:1011CC0000F2808101A252F823F000BF0112000846
:1011DC004912000891120008D912000821130008C6
:1011EC0069130008B1130008F91300084114000832
:1011FC008914000800220121B44801F02CF80022C7
:10120C000221B24801F027F800220421AF4801F076
:10121C0022F800220821AD4801F01DF8002210210F
:10122C00AA4801F018F800222021A84801F013F870
:10123C0001224021A54801F00EF843E101220121D1
:10124C00A24801F008F800220221A04801F003F89E
:10125C00002204219D4800F0FEFF012208219B483A
:10126C0000F0F9FF01221021984800F0F4FF012250
:10127C002021964800F0EFFF01224021934800F016
:10128C00EAFF1FE100220121904800F0E4FF002258
:10129C0002218E4800F0DFFF012204218B4800F070
:1012AC00DAFF00220821894800F0D5FF0022102126
:1012BC00864800F0D0FF01222021844800F0CBFFAB
:1012CC0000224021814800F0C6FFFBE000220121F2
:1012DC007E4800F0C0FF002202217C4800F0BBFFDA
:1012EC0000220421794800F0B6FF0022082177483B
:1012FC0000F0B1FF01221021744800F0ACFF012274
:10130C002021724800F0A7FF002240216F4800F016
:10131C00A2FFD7E0012201216C4800F09CFF0022C3
:10132C0002216A4800F097FF00220421674800F070
:10133C0092FF01220821654800F08DFF0122102147
:10134C00624800F088FF00222021604800F083FFF3
:10135C00002240215D4800F07EFFB3E00022012115
:10136C005A4800F078FF01220221584800F073FF20
:10137C0000220421554800F06EFF0022082153483A
:10138C0000F069FF01221021504800F064FF002298
:10139C0020214E4800F05FFF002240214B4800F016
:1013AC005AFF8FE000220121484800F054FF01222F
:1013BC000221464800F04FFF00220421434800F070
:1013CC004AFF00220821414800F045FF002210216D
:1013DC003E4800F040FF002220213C4800F03BFF3B
:1013EC0000224021394800F036FF6BE00022012139
:1013FC00364800F030FF00220221344800F02BFF69
:10140C0000220421314800F026FF012208212F4838
:10141C0000F021FF012210212C4800F01CFF0122BA
:10142C0020212A4800F017FF01224021274800F014
:10143C0012FF47E000220121244800F00CFF00229B
:10144C000221224800F007FF002204211F4800F06F
:10145C0002FF002208211D4800F0FDFE0022102191
:10146C001A4800F0F8FE00222021184800F0F3FE84
:10147C0000224021154800F0EEFE23E0002201215D
:10148C00124800F0E8FE00220221104800F0E3FEB2
:10149C00002204210D4800F0DEFE002208210B483A
:1014AC0000F0D9FE01221021084800F0D4FE0022E1
:1014BC002021064800F0CFFE00224021034800F016
:1014CC00CAFE00BF00BF0837BD4680BD000C0140FE
:1014DC0080B582B000AF78607B68032B6ED801A218
:1014EC0052F823F0011500083315000865150008A3
:1014FC009715000801224FF48051334800F0ABFEE1
:10150C0000224FF40051304800F0A5FE00224FF4A9
:10151C0080412D4800F09FFE00224FF400412A48E4
:10152C0000F099FE4BE000224FF48051264800F069
:10153C0092FE01224FF40051234800F08CFE002251
:10154C004FF48041204800F086FE00224FF4004109
:10155C001D4800F080FE32E000224FF480511A4802
:10156C0000F079FE00224FF40051174800F073FE92
:10157C0001224FF48041144800F06DFE00224FF41C
:10158C000041114800F067FE19E000224FF4805131
:10159C000D4800F060FE00224FF400510A4800F0A4
:1015AC005AFE00224FF48041074800F054FE0122FD
:1015BC004FF40041044800F04EFE00E000BF00BFB5
:1015CC000837BD4680BD00BF0008014080B500AFA4
:1015DC0000224FF480510B4800F03DFE00224FF4E6
:1015EC000051084800F037FE00224FF480410548B6
:1015FC0000F031FE00224FF40041024800F02BFEB7
:10160C0000BF80BD0008014080B582B000AF78609B
:10161C007868FFF75DFF054A7B6852F8233018465F
:10162C00FFF7C8FD00BF0837BD4680BD7000002025
:10163C0080B500AF00F00EFB00F026F800F060F86B
:10164C0000F0AAF80D4801F063FA4FF47A71052006
:10165C0000F024F90A4B5B69012B08D14FF47A7125
:10166C00052000F01BF90221064800F00CFEFEF7E5
:10167C00D7FEFFF765FBFFF7A3FAEBE7DC000020D2
:10168C00A80000200008014080B590B000AF07F121
:10169C00180328220021184601F0EAFD3B1D002208
:1016AC001A605A609A60DA601A610223BB610123E6
:1016BC00BB621023FB6200237B6307F118031846FF
:1016CC0000F0FAFD0346002B01D000F0E1F80F23E7
:1016DC007B600023BB600023FB6000233B61002385
:1016EC007B613B1D0021184601F066F80346002B78
:1016FC0001D000F0CDF800BF4037BD4680BD0000E2
:10170C0080B586B000AF07F1080300221A605A605A
:10171C009A60DA603B4600221A605A601D4B4FF00B
:10172C0080421A601B4B41F63F725A60194B0022E3
:10173C009A60184B0922DA60164B00221A61154B7D
:10174C0000229A61134801F093F90346002B01D053
:10175C0000F09EF84FF48053BB6007F10803194664
:10176C000C4801F011FB0346002B01D000F090F85F
:10177C0000233B6000237B603B461946054801F083
:10178C00E9FC0346002B01D000F082F800BF1837AB
:10179C00BD4680BDDC00002080B588B000AF07F1ED
:1017AC00100300221A605A609A60DA602E4B9B6913
:1017BC002D4A43F0100393612B4B9B6903F01003EC
:1017CC00FB60FB68284B9B69274A43F00403936139
:1017DC00254B9B6903F00403BB60BB68224B9B69E0
:1017EC00214A43F0080393611F4B9B6903F00803E4
:1017FC007B607B6800224FF2F6311C4800F02BFD19
:10180C0000227F211A4800F026FD4FF460433B6113
:10181C0000237B610123BB6107F1100319461548B6
:10182C0000F088FB4FF2F6333B6101237B61002310
:10183C00BB610223FB6107F1100319460B4800F052
:10184C0079FB7F233B6101237B610023BB61022376
:10185C00FB6107F110031946054800F06BFB00BF54
:10186C002037BD4680BD00BF00100240000801407B
:10187C00000C01400010014080B582B000AF7860D0
:10188C0000F02CF8FEF75CFC00BF0837BD4680BDAD
:10189C0080B400AF72B600BFFEE7000080B483B026
:1018AC0000AF786039603B68094A82FB03129210E2
:1018BC00DB17D21A07497B6841F82320064A7B685C
:1018CC00002142F8231000BF0C37BD4680BC704786
:1018DC006766666680000020A800002080B483B094
:1018EC0000AF00237B6016E00F4A7B6852F8233070
:1018FC005A1E0D497B6841F823200B4A7B6852F82D
:10190C002330002B04DC094A7B68012142F82310A8
:10191C007B6801337B607B68092BE5DD00BF00BF72
:10192C000C37BD4680BC704780000020A80000200A
:10193C0080B485B000AF154B9B69144A43F001038A
:10194C009361124B9B6903F00103BB60BB680F4BA7
:10195C00DB690E4A43F08053D3610C4BDB6903F017
:10196C0080537B607B680A4B5B68FB60FB6823F0F1
:10197C00E063FB60FB6843F08063FB60044AFB6838
:10198C00536000BF1437BD4680BC70470010024046
:10199C000000014080B584B000AF78607B681B68A4
:1019AC00B3F1804F13D10C4BDB690B4A43F00103AD
:1019BC00D361094BDB6903F00103FB60FB68002278
:1019CC0000211C2000F07FFA1C2000F098FA00BFC8
:1019DC001037BD4680BD00BF0010024080B400AF80
:1019EC00FEE780B400AFFEE780B400AFFEE780B442
:1019FC0000AFFEE780B400AFFEE780B400AF00BFDD
:101A0C00BD4680BC704780B400AF00BFBD4680BCF3
:101A1C00704780B400AF00BFBD4680BC704780B536
:101A2C0000AF00F05DF900BF80BD000080B500AFD5
:101A3C00024801F0B9F800BF80BD00BFDC000020F7
:101A4C0080B400AF00BFBD4680BC704780B500AF0E
:101A5C0001221021074800F0FEFB0022202105483E
:101A6C0000F0F9FB00224021024800F0F4FB00BF1B
:101A7C0080BD00BF0008014080B500AF00221021DE
:101A8C00074800F0E8FB00222021054800F0E3FBAA
:101A9C0001224021024800F0DEFB00BF80BD00BFE8
:101AAC000008014080B500AF00221021074800F06B
:101ABC00D2FB01222021054800F0CDFB0022402161
:101ACC00024800F0C8FB00BF80BD00BF0008014009
:101ADC0080B500AF01228021084800F0BCFB002239
:101AEC004FF48071054800F0B6FB00224FF40071F2
:101AFC00024800F0B0FB00BF80BD00BF00080140F1
:101B0C0080B500AF00228021084800F0A4FB002221
:101B1C004FF48071054800F09EFB01224FF40071D8
:101B2C00024800F098FB00BF80BD00BF00080140D8
:101B3C0080B500AF00228021084800F08CFB012208
:101B4C004FF48071054800F086FB00224FF40071C1
:101B5C00024800F080FB00BF80BD00BF00080140C0
:101B6C0080B500AF002210210F4800F074FB00225A
:101B7C0020210D4800F06FFB002240210A4800F0A4
:101B8C006AFB00228021084800F065FB00224FF41C
:101B9C008071054800F05FFB00224FF40071024891
:101BAC0000F059FB00BF80BD0008014080B500AFBC
:101BBC001021044800F067FB8021024800F063FB11
:101BCC0000BF80BD0008014080B500AF2021054852
:101BDC0000F059FB4FF48071024800F054FB00BF39
:101BEC0080BD00BF0008014080B500AF4021054812
:101BFC0000F049FB4FF40071024800F044FB00BFB9
:101C0C0080BD00BF00080140FFF71AFF0B480C49CC
:101C1C000C4A002302E0D458C4500433C4188C423C
:101C2C00F9D3094A094C002301E013600432A242A3
:101C3C00FBD301F0F9FAFFF7FBFC70470000002022
:101C4C0030000020D0320008300000202801002095
:101C5C00FEE7000080B500AF084B1B68074A43F055
:101C6C0010031360032000F023F90F2000F008F894
:101C7C00FFF75EFE0023184680BD00BF0020024027
:101C8C0080B582B000AF7860124B1A68124B1B788B
:101C9C0019464FF47A73B3FBF1F3B2FBF3F3184626
:101CAC0000F03BF90346002B01D001230EE07B68CA
:101CBC000F2B0AD8002279684FF0FF3000F003F99F
:101CCC00064A7B681360002300E00123184608379E
:101CDC00BD4680BD240000202C00002028000020E0
:101CEC0080B400AF054B1B781A46054B1B68134498
:101CFC00034A136000BFBD4680BC70472C00002017
:101D0C002401002080B400AF024B1B681846BD466E
:101D1C0080BC70472401002080B485B000AF78608F
:101D2C007B6803F00703FB600C4BDB68BB60BA6895
:101D3C004FF6FF031340BB60FB681A02BB681343EA
:101D4C0043F0BF6343F40033BB60044ABB68D36009
:101D5C0000BF1437BD4680BC704700BF00ED00E0EB
:101D6C0080B400AF044BDB681B0A03F00703184672
:101D7C00BD4680BC704700BF00ED00E080B483B06E
:101D8C0000AF0346FB7197F90730002B0BDBFB7997
:101D9C0003F01F02064997F907305B09012000FA8E
:101DAC0002F241F8232000BF0C37BD4680BC7047BF
:101DBC0000E100E080B483B000AF03463960FB71F2
:101DCC0097F90730002B0ADB3B68DAB20C4997F91C
:101DDC0007301201D2B20B4483F800230AE03B68AF
:101DEC00DAB20849FB7903F00F03043B1201D2B2BB
:101DFC000B441A7600BF0C37BD4680BC704700BF41
:101E0C0000E100E000ED00E080B489B000AFF860C4
:101E1C00B9607A60FB6803F00703FB61FB69C3F1EF
:101E2C000703042B28BF0423BB61FB690433062B77
:101E3C0002D9FB69033B00E000237B614FF0FF32CA
:101E4C00BB6902FA03F3DA43BB681A407B699A4018
:101E5C004FF0FF317B6901FA03F3D9437B680B40E8
:101E6C00134318462437BD4680BC704780B582B0FA
:101E7C0000AF78607B68013BB3F1807F01D3012315
:101E8C000FE00A4A7B68013B53600F214FF0FF3093
:101E9C00FFF790FF054B00229A60044B07221A6053
:101EAC00002318460837BD4680BD00BF10E000E097
:101EBC0080B582B000AF78607868FFF72DFF00BF67
:101ECC000837BD4680BD80B586B000AF0346B9600B
:101EDC007A60FB7300237B61FFF742FF78617A68BD
:101EEC00B9687869FFF790FF024697F90F301146F1
:101EFC001846FFF75FFF00BF1837BD4680BD80B5A1
:101F0C0082B000AF0346FB7197F907301846FFF714
:101F1C0035FF00BF0837BD4680BD80B582B000AF2D
:101F2C0078607868FFF7A2FF034618460837BD466D
:101F3C0080BD000080B48BB000AF786039600023A6
:101F4C007B6200233B6248E101227B6A02FA03F3C5
:101F5C00FB613B681B68FA691340BB61BA69FB699A
:101F6C009A4240F037813B685B68A34A93425ED04B
:101F7C00A14A934275D8A14A934258D09F4A9342A2
:101F8C006FD89F4A934252D09D4A934269D89D4A3A
:101F9C0093424CD09B4A934263D89B4A934246D07F
:101FAC00994A93425DD8122B2AD8122B59D801A2E8
:101FBC0052F823F03B2000081520000827200008C9
:101FCC00692000086F2000086F2000086F200008AF
:101FDC006F2000086F2000086F2000086F20000899
:101FEC006F2000086F2000086F2000086F20000889
:101FFC006F2000086F2000081D2000083120000809
:10200C00824A934213D02CE03B68DB683B6229E0A8
:10201C003B68DB6804333B6224E03B68DB680833D5
:10202C003B621FE03B68DB680C333B621AE03B68A9
:10203C009B68002B02D104233B6213E03B689B6836
:10204C00012B05D108233B627B68FA691A6109E010
:10205C0008233B627B68FA695A6103E000233B6208
:10206C0000E000BFBB69FF2B01D87B6801E07B68F7
:10207C0004337B61BB69FF2B02D87B6A9B0002E0B7
:10208C007B6A083B9B003B617B691A680F213B69AB
:10209C0001FA03F3DB431A40396A3B6901FA03F393
:1020AC001A437B691A603B685B6803F08053002B12
:1020BC0000F09080564B9B69554A43F001039361A5
:1020CC00534B9B6903F00103BB60BB68514A7B6AAD
:1020DC009B08023352F82330FB607B6A03F0030346
:1020EC009B000F2202FA03F3DB43FA681340FB60F8
:1020FC007B68494A93420DD07B68484A934207D08B
:10210C007B68474A934201D1022304E0032302E097
:10211C00012300E000237A6A02F00302920093404C
:10212C00FA681343FB603B497B6A9B080233FA68ED
:10213C0041F823203B685B6803F48013002B06D026
:10214C00384B9A683749BB6913438B6006E0354BB3
:10215C009A68BB69DB43334913408B603B685B680F
:10216C0003F40013002B06D02E4BDA682D49BB6903
:10217C001343CB6006E02B4BDA68BB69DB43294980
:10218C001340CB603B685B6803F40033002B06D034
:10219C00244B5A682349BB6913434B6006E0214B1F
:1021AC005A68BB69DB431F4913404B603B685B6853
:1021BC0003F48033002B06D01A4B1A681949BB69FB
:1021CC0013430B6006E0174B1A68BB69DB431549D8
:1021DC0013400B607B6A01337B623B681A687B6A35
:1021EC0022FA03F3002B7FF4AFAE00BF00BF2C37F5
:1021FC00BD4680BC704700BF00003210000031109B
:10220C00000022100000211000001210000011101C
:10221C00001002400000014000080140000C014089
:10222C00001001400004014080B485B000AF78601C
:10223C000B467B807B689A687B881340002B02D00E
:10224C000123FB7301E00023FB73FB7B184614375F
:10225C00BD4680BC704780B483B000AF78600B463D
:10226C007B8013467B707B78002B03D07A887B684D
:10227C001A6103E07B881A047B681A6100BF0C3773
:10228C00BD4680BC704780B485B000AF78600B460B
:10229C007B807B68DB68FB607A88FB6813401A04E0
:1022AC00FB68D9437B880B401A437B681A6100BFDB
:1022BC001437BD4680BC704780B586B000AF7860DF
:1022CC007B68002B01D101236CE27B681B6803F057
:1022DC000103002B00F08780924B5B6803F00C032A
:1022EC00042B0CD08F4B5B6803F00C03082B12D122
:1022FC008C4B5B6803F48033B3F5803F0BD1894B77
:10230C001B6803F40033002B6CD07B685B68002BDC
:10231C0068D1012346E27B685B68B3F5803F06D148
:10232C00804B1B687F4A43F4803313602EE07B683C
:10233C005B68002B0CD17B4B1B687A4A23F48033EF
:10234C001360784B1B68774A23F4802313601DE0DD
:10235C007B685B68B3F5A02F0CD1724B1B68714A7C
:10236C0043F4802313606F4B1B686E4A43F4803335
:10237C0013600BE06B4B1B686A4A23F480331360C9
:10238C00684B1B68674A23F4802313607B685B6887
:10239C00002B13D0FFF7B6FC386108E0FFF7B2FC56
:1023AC0002463B69D31A642B01D90323FAE15D4B36
:1023BC001B6803F40033002BF0D014E0FFF7A2FCF1
:1023CC00386108E0FFF79EFC02463B69D31A642B88
:1023DC0001D90323E6E1534B1B6803F40033002BB4
:1023EC00F0D100E000BF7B681B6803F00203002BF8
:1023FC0063D04C4B5B6803F00C03002B0BD0494BA8
:10240C005B6803F00C03082B1CD1464B5B6803F490
:10241C008033002B16D1434B1B6803F00203002BB7
:10242C0005D07B681B69012B01D00123BAE13D4B20
:10243C001B6823F0F8027B685B69DB0039491343A6
:10244C000B603AE07B681B69002B20D0364B0122D5
:10245C001A60FFF757FC386108E0FFF753FC02469F
:10246C003B69D31A022B01D903239BE12D4B1B682B
:10247C0003F00203002BF0D02A4B1B6823F0F80268
:10248C007B685B69DB00274913430B6015E0264B27
:10249C0000221A60FFF736FC386108E0FFF732FCC7
:1024AC0002463B69D31A022B01D903237AE11D4B57
:1024BC001B6803F00203002BF0D17B681B6803F050
:1024CC000803002B3AD07B689B69002B19D0174B63
:1024DC0001221A60FFF716FC386108E0FFF712FCC6
:1024EC0002463B69D31A022B01D903235AE10D4B47
:1024FC005B6A03F00203002BF0D0012000F09AFA83
:10250C001CE00A4B00221A60FFF7FCFB38610FE05D
:10251C00FFF7F8FB02463B69D31A022B08D90323B9
:10252C0040E100BF001002400000424280044242E1
:10253C009E4B5B6A03F00203002BE9D17B681B689E
:10254C0003F00403002B00F0A6800023FB75974BCF
:10255C00DB6903F08053002B0DD1944BDB69934A5C
:10256C0043F08053D361914BDB6903F08053BB6024
:10257C00BB680123FB758E4B1B6803F48073002B27
:10258C0018D18B4B1B688A4A43F480731360FFF796
:10259C00B9FB386108E0FFF7B5FB02463B69D31A7B
:1025AC00642B01D90323FDE0814B1B6803F480737A
:1025BC00002BF0D07B68DB68012B06D17B4B1B6AB0
:1025CC007A4A43F0010313622DE07B68DB68002B31
:1025DC000CD1764B1B6A754A23F001031362734BC3
:1025EC001B6A724A23F0040313621CE07B68DB68ED
:1025FC00052B0CD16D4B1B6A6C4A43F00403136220
:10260C006A4B1B6A694A43F0010313620BE0674B88
:10261C001B6A664A23F001031362644B1B6A634A0C
:10262C0023F0040313627B68DB68002B15D0FFF7E3
:10263C0069FB38610AE0FFF765FB02463B69D31A78
:10264C0041F28832934201D90323ABE0574B1B6A0A
:10265C0003F00203002BEED014E0FFF753FB3861BC
:10266C000AE0FFF74FFB02463B69D31A41F288326E
:10267C00934201D9032395E04C4B1B6A03F00203F0
:10268C00002BEED1FB7D012B05D1484BDB69474A72
:10269C0023F08053D3617B68DB69002B00F08180D1
:1026AC00424B5B6803F00C03082B61D07B68DB6941
:1026BC00022B46D13F4B00221A60FFF723FB3861F7
:1026CC0008E0FFF71FFB02463B69D31A022B01D926
:1026DC00032367E0354B1B6803F00073002BF0D12C
:1026EC007B681B6AB3F5803F08D1304B5B6823F4E1
:1026FC0000327B689B682D4913434B602B4B5B6806
:10270C0023F474127B68196A7B685B6A0B43274954
:10271C0013434B60274B01221A60FFF7F3FA386121
:10272C0008E0FFF7EFFA02463B69D31A022B01D9F6
:10273C00032337E01D4B1B6803F00073002BF0D014
:10274C002FE01C4B00221A60FFF7DCFA386108E01E
:10275C00FFF7D8FA02463B69D31A022B01D903239F
:10276C0020E0124B1B6803F00073002BF0D118E033
:10277C007B68DB69012B01D1012313E00B4B5B68F8
:10278C00FB60FB6803F480327B681B6A9A4206D1BB
:10279C00FB6803F470127B685B6A9A4201D00123D8
:1027AC0000E0002318461837BD4680BD00100240DB
:1027BC00007000406000424280B584B000AF786089
:1027CC0039607B68002B01D10123D0E06A4B1B6878
:1027DC0003F007033A689A4210D9674B1B6823F041
:1027EC00070265493B6813430B60634B1B6803F09E
:1027FC0007033A689A4201D00123B8E07B681B6852
:10280C0003F00203002B20D07B681B6803F0040349
:10281C00002B05D0594B5B68584A43F4E063536076
:10282C007B681B6803F00803002B05D0534B5B68D7
:10283C00524A43F460535360504B5B6823F0F002F0
:10284C007B689B684D4913434B607B681B6803F0A6
:10285C000103002B40D07B685B68012B07D1474BF1
:10286C001B6803F40033002B15D101237FE07B6838
:10287C005B68022B07D1414B1B6803F00073002BE4
:10288C0009D1012373E03D4B1B6803F00203002BBD
:10289C0001D101236BE0394B5B6823F003027B68A9
:1028AC005B68364913434B60FFF72CFAF8600AE07B
:1028BC00FFF728FA0246FB68D31A41F2883293429A
:1028CC0001D9032353E02D4B5B6803F00C027B68AA
:1028DC005B689B009A42EBD1274B1B6803F0070304
:1028EC003A689A4210D2244B1B6823F00702224903
:1028FC003B6813430B60204B1B6803F007033A68DB
:10290C009A4201D0012332E07B681B6803F0040378
:10291C00002B08D0194B5B6823F4E0627B68DB6802
:10292C00164913434B607B681B6803F00803002BAC
:10293C0009D0124B5B6823F460527B681B69DB0087
:10294C000E4913434B6000F021F802460B4B5B68B9
:10295C001B0903F00F030A49CB5C22FA03F3094A63
:10296C001360094B1B681846FFF78AF900231846B9
:10297C001037BD4680BD00BF002002400010024051
:10298C00A4320008240000202800002080B487B066
:10299C0000AF0023FB600023BB6000237B6100239E
:1029AC007B6000233B611E4B5B68FB60FB6803F0A4
:1029BC000C03042B02D0082B03D027E0194B3B61EE
:1029CC0027E0FB689B0C03F00F03174AD35C7B607A
:1029DC00FB6803F48033002B10D0114B5B685B0C4D
:1029EC0003F00103114AD35CBB607B680D4A02FB08
:1029FC0003F2BB68B2FBF3F37B6104E07B680C4A27
:102A0C0002FB03F37B617B693B6102E0054B3B619D
:102A1C0000BF3B6918461C37BD4680BC704700BFE1
:102A2C000010024000127A00B4320008C4320008D0
:102A3C0000093D0080B485B000AF78600A4B1B687C
:102A4C000A4AA2FB03235B0A7A6802FB03F3FB60CE
:102A5C0000BFFB685A1EFA60002BF9D100BF00BF03
:102A6C001437BD4680BC704724000020D34D621043
:102A7C0080B582B000AF78607B68002B01D1012358
:102A8C0041E07B6893F83D30DBB2002B06D17B68CC
:102A9C00002283F83C207868FEF77CFF7B680222DA
:102AAC0083F83D207B681A687B680433194610460E
:102ABC0000F056FA7B68012283F846207B680122DD
:102ACC0083F83E207B68012283F83F207B6801223B
:102ADC0083F840207B68012283F841207B68012227
:102AEC0083F842207B68012283F843207B68012213
:102AFC0083F844207B68012283F845207B680122FF
:102B0C0083F83D20002318460837BD4680BD0000E1
:102B1C0080B485B000AF78607B6893F83D30DBB251
:102B2C00012B01D0012335E07B68022283F83D2084
:102B3C007B681B68DA687B681B6842F00102DA600C
:102B4C007B681B68164A934209D07B681B68B3F1FB
:102B5C00804F04D07B681B68124A934211D17B686A
:102B6C001B689B6803F00703FB60FB68062B10D007
:102B7C007B681B681A687B681B6842F001021A604C
:102B8C0007E07B681B681A687B681B6842F00102CF
:102B9C001A60002318461437BD4680BC704700BF2E
:102BAC00002C01400004004080B584B000AF786078
:102BBC007B681B68DB68FB607B681B681B69BB6000
:102BCC00BB6803F00203002B20D0FB6803F0020368
:102BDC00002B1BD07B681B686FF002021A617B68AC
:102BEC0001221A777B681B689B6903F00303002B97
:102BFC0003D0786800F098F905E0786800F08BF95C
:102C0C00786800F09AF97B6800221A77BB6803F0A9
:102C1C000403002B20D0FB6803F00403002B1BD013
:102C2C007B681B686FF004021A617B6802221A77BA
:102C3C007B681B689B6903F44073002B03D0786896
:102C4C0000F072F905E0786800F065F9786800F03A
:102C5C0074F97B6800221A77BB6803F00803002B19
:102C6C0020D0FB6803F00803002B1BD07B681B688B
:102C7C006FF008021A617B6804221A777B681B6864
:102C8C00DB6903F00303002B03D0786800F04CF9E8
:102C9C0005E0786800F03FF9786800F04EF97B6841
:102CAC0000221A77BB6803F01003002B20D0FB68BE
:102CBC0003F01003002B1BD07B681B686FF0100215
:102CCC001A617B6808221A777B681B68DB6903F43E
:102CDC004073002B03D0786800F026F905E0786883
:102CEC0000F019F9786800F028F97B6800221A774F
:102CFC00BB6803F00103002B0CD0FB6803F001034D
:102D0C00002B07D07B681B686FF001021A61786892
:102D1C00FEF7B2FDBB6803F08003002B0CD0FB6800
:102D2C0003F08003002B07D07B681B686FF08002D8
:102D3C001A61786800F06FFABB6803F04003002B4F
:102D4C000CD0FB6803F04003002B07D07B681B689A
:102D5C006FF040021A61786800F0F8F8BB6803F075
:102D6C002003002B0CD0FB6803F02003002B07D0B2
:102D7C007B681B686FF020021A61786800F042FAD9
:102D8C0000BF1037BD4680BD80B584B000AF786001
:102D9C0039600023FB737B6893F83C30012B01D125
:102DAC000223B4E07B68012283F83C207B6802227A
:102DBC0083F83D207B681B689B68BB60BB6823F075
:102DCC007703BB60BB6823F47F43BB607B681B68E5
:102DDC00BA689A603B681B68B3F5005F3ED0B3F5E8
:102DEC00005F00F28780B3F5805F00F08680B3F55A
:102DFC00805F7FD8702B1AD0702B7BD8602B50D073
:102E0C00602B77D8502B3CD0502B73D8402B58D0FC
:102E1C00402B6FD8302B64D0302B6BD8202B60D04C
:102E2C00202B67D8002B5CD0102B5AD062E07B682B
:102E3C0018683B6899683B685A683B68DB6800F027
:102E4C006AF97B681B689B68BB60BB6843F07703BF
:102E5C00BB607B681B68BA689A604FE07B68186837
:102E6C003B6899683B685A683B68DB6800F053F92B
:102E7C007B681B689A687B681B6842F480429A6086
:102E8C003CE07B6818683B6859683B68DB681A460D
:102E9C0000F0CAF87B681B685021184600F021F935
:102EAC002CE07B6818683B6859683B68DB681A46FD
:102EBC0000F0E8F87B681B686021184600F011F9F7
:102ECC001CE07B6818683B6859683B68DB681A46ED
:102EDC0000F0AAF87B681B684021184600F001F945
:102EEC000CE07B681A683B681B681946104600F0BA
:102EFC00F8F803E00123FB7300E000BF7B680122BC
:102F0C0083F83D207B68002283F83C20FB7B18462D
:102F1C001037BD4680BD80B483B000AF786000BF71
:102F2C000C37BD4680BC704780B483B000AF78606E
:102F3C0000BF0C37BD4680BC704780B483B000AF77
:102F4C00786000BF0C37BD4680BC704780B483B03E
:102F5C0000AF786000BF0C37BD4680BC70470000E6
:102F6C0080B485B000AF786039607B681B68FB600B
:102F7C007B682B4A934207D07B68B3F1804F03D018
:102F8C007B68284A934208D1FB6823F07003FB60EE
:102F9C003B685B68FA681343FB607B68204A93428A
:102FAC0007D07B68B3F1804F03D07B681D4A9342F6
:102FBC0008D1FB6823F44073FB603B68DB68FA685C
:102FCC001343FB60FB6823F080023B685B6913438F
:102FDC00FB607B68FA681A603B689A687B68DA6207
:102FEC003B681A687B689A627B680D4A934203D1EE
:102FFC003B681A697B681A637B6801225A617B689B
:10300C001B6903F00103002B05D07B681B6923F0BF
:10301C0001027B681A6100BF1437BD4680BC704743
:10302C00002C01400004004080B487B000AFF86071
:10303C00B9607A60FB681B6A7B61FB681B6A23F0D2
:10304C000102FB681A62FB689B693B613B6923F0D8
:10305C00F0033B617B681B013A6913433B617B695D
:10306C0023F00A037B617A69BB6813437B61FB68BD
:10307C003A699A61FB687A691A6200BF1C37BD46CF
:10308C0080BC704780B487B000AFF860B9607A60DC
:10309C00FB681B6A7B61FB681B6A23F01002FB68F0
:1030AC001A62FB689B693B613B6923F470433B618B
:1030BC007B681B033A6913433B617B6923F0A003D4
:1030CC007B61BB681B017A6913437B61FB683A69BE
:1030DC009A61FB687A691A6200BF1C37BD4680BCD6
:1030EC00704780B485B000AF786039607B689B68AE
:1030FC00FB60FB6823F07003FB603A68FB681343CA
:10310C0043F00703FB607B68FA689A6000BF1437D2
:10311C00BD4680BC704780B487B000AFF860B96022
:10312C007A603B60FB689B687B617B6923F47F431F
:10313C007B613B681A027B681A43BB6813437A694C
:10314C0013437B61FB687A699A6000BF1C37BD46EC
:10315C0080BC704780B485B000AF786039607B6804
:10316C0093F83C30012B01D1022341E07B68012212
:10317C0083F83C207B68022283F83D207B681B6827
:10318C005B68FB607B681B689B68BB60FB6823F01B
:10319C007003FB603B681B68FA681343FB607B6839
:1031AC001B68FA685A607B681B68144A934209D002
:1031BC007B681B68B3F1804F04D07B681B68104A96
:1031CC0093420CD1BB6823F08003BB603B685B6807
:1031DC00BA681343BB607B681B68BA689A607B68EB
:1031EC00012283F83D207B68002283F83C200023D9
:1031FC0018461437BD4680BC704700BF002C0140F8
:10320C000004004080B483B000AF786000BF0C377E
:10321C00BD4680BC704780B483B000AF786000BFFF
:10322C000C37BD4680BC704770B500260C4D0D4C5C
:10323C00641BA410A64209D100F022F800260A4D06
:10324C000A4C641BA410A64205D170BD55F8043B72
:10325C0098470136EEE755F8043B98470136F2E7FC
:10326C00C8320008C8320008C8320008CC32000846
:10327C0003460244934200D1704703F8011BF9E75F
:10328C00F8B500BFF8BC08BC9E467047F8B500BF47
:08329C00F8BC08BC9E46704717
:1032A40000000000000000000102030406070809F2
:1032B40002030405060708090A0B0C0D0E0F101073
:0432C4000102000003
:0432C80031010008C8
:0432CC000D010008E8
:1032D000C8000000C8000000C80000000500000091
:1032E00002000000030000000200000003000000D4
:1032F0000400000000127A0010000000010000002D
:0400000508001C15BE
:00000001FF
